:10000000B5C20000CFC20000CDC20000CBC20000CC
:10001000C9C20000C7C20000C5C20000C3C20000C0
:10002000C1C20000BFC200000C949F0E0C94650F6B
:10003000B9C20000B7C20000B5C20000B3C20000E0
:100040000C94B608AFC20000ADC20000ABC2000005
:10005000A9C20000A7C20000A5C20000A3C2000000
:10006000A1C200009FC200009DC200009BC2000010
:1000700099C2000097C2000095C2000093C2000020
:1000800091C200008FC200008DC200008BC2000030
:1000900089C2000087C2000085C2000083C2000040
:1000A00081C200007FC200007DC2000025750D0ADC
:1000B000002575200025632000256320257320007E
:1000C000256320257320004572726F723A204D65BA
:1000D00061737572656D656E742074696D656F7599
:1000E000742074686520746573746564206361703E
:1000F00061636974792E0D0A004572726F723A203D
:100100004469736368617267696E6720746865200B
:1001100074657374656420636170616369747920C8
:10012000697320756E61747461696E61626C652EAD
:100130000D0A004572726F723A20436865636B2046
:1001400074686520706F77657220737570706C7954
:10015000206F6620746865206D6F64756C652E0D68
:100160000A004572726F723A20556E7265636F674E
:100170006E697A656420436F6D6D616E643A202507
:10018000630D0A004F4B0D0A0054202D2D2D2D2DEF
:100190002D20205248202D2D2D2D2D2D2000524870
:1001A0002025732025250054202573256343200036
:1001B0002573005469636B73202573202F2000433F
:1001C00061706163697479202573207046005469F9
:1001D0006D655374616D7020202573005020257368
:1001E0002F313030007420257320004F4B0D0A0052
:1001F0004F4B0D0A00446576696365204572726F46
:10020000723A20556E7265636F676E697A65642015
:10021000436F6D6D616E643A2025630D0A004F4B8C
:100220000D0A004F4B0D0A004F4B0D0A004F4B0DAE
:100230000A00446576696365204572726F723A20E0
:100240005348544333206D6F64756C6520756E722E
:100250006567697374657265640D0A004465766943
:100260006365204572726F723A2052656164207432
:10027000656D706572617475726520756E657870F4
:100280006563746564206572726F723A2025750D1E
:100290000A0025730D0A00257320004F4B0D0A003C
:1002A00025730D0A00257320002573200025732077
:1002B000004F4B0D0A00256C750D0A0025732000B8
:1002C000257320002573200025732000446576697E
:1002D0006365204572726F723A2055534220427511
:1002E00066666572204F766572666C6F77210D0ABF
:1002F000002A2A2A2A2A2A2A2A2A2A2A2A2A2A2A88
:100300002A2A2A2A2A002A20205047203230323234
:10031000202F203230323320202A002A202043612F
:1003200070616369747953656E736F7220202A005F
:100330002A2A2A2A2A2A2A2A2A2A2A2A2A2A2A2A1D
:100340002A2A2A2A0045474E40787A8FC083C03235
:10035000401B9E94C066665640F0A7D63F6ABCA07C
:1003600040000000007CEA02003803430061007096
:100370000061006300690074007900530065006E3D
:100380000073006F0072005F00500047005F003292
:10039000003000320032002F0032003000320033D3
:1003A0000000003E035300310037003900390039A6
:1003B000003100200042006F0072006F007700697A
:1003C0000063006B0069002000410072006B006157
:1003D0000064006900750073007A00200050004737
:1003E0000000000403090409023E00020100C032BB
:1003F0000904000001020201000524001001042488
:1004000002060524060001070582030800FF09040F
:100410000100020A0000000705040210000507059C
:1004200083021000051201100102000008EB0344D2
:100430002001000102DC014E414E494E4954594908
:100440004E46CDCCCC3D0AD7233C17B7D13877CC1C
:100450002B329595E6241FB14F0A00002041000081
:10046000C84200401C4620BCBE4CCA1B0E5AAEC53A
:100470009D7400407A10F35A00A0724E18090010C3
:10048000A5D4E80000E87648170000E40B54020009
:1004900000CA9A3B000000E1F50500008096980034
:1004A000000040420F000000A0860100000010275D
:1004B00000000000E80300000000640000000000ED
:1004C0000A00000000000100000000002C76D8881F
:1004D000DC674F0823DFC1DFAE59E1B1B796E5E332
:1004E000E453C63AE651997696E8E6C28426EB894B
:1004F0008C9B62ED407C6FFCEFBC9C9F40F2BAA5E8
:100500006FA5F490055A2AF75C936B6CF9676DC17F
:100510001BFCE0E40D47FEF520E6B500D0ED902E83
:100520000300943577050080841E080000204E0AE1
:10053000000000C80C333333330F986E128311411F
:10054000EF8D2114893BE65516CFFEE6DB18D184EA
:100550004B381BF77C1D901DA4BBE4242032847211
:100560005E228100C9F124ECA1E53D2711241FBEC4
:10057000CFEFDAE0DEBFCDBF11E0A0E0B1E0E0EE0A
:10058000FAE302C005900D92AC31B107D9F723E030
:10059000ACE1B1E001C01D92A43AB207E1F7D6D0B8
:1005A0000C946E1D2DCDE1E8F0E080818E7F80837C
:1005B000EFE6F0E080818F7D808308950F931F9395
:1005C000242F0CE111E04CEE0E942215F80180E08E
:1005D00090E02191203229F4FC01E45EFE4F10826C
:1005E00004C0019684319105A1F78CE191E01F913F
:1005F0000F9108958F929F92AF92BF92CF92DF9208
:10060000EF92FF920F931F938091880281FF92C017
:100610000E943F0B811186C00E94E60B4B015C01DA
:100620000E94B713072E000C880B990B0E94EA1347
:100630006B017C019B01AC01C501B4010E94EA126F
:1006400020E030E048EC52E40E9476140E94B71398
:100650008B019C01CB016AE070E00E94D914B801C3
:10066000681B790B069714F0665F7F4F072E000C0E
:10067000880B990B0E94EA1320E030E048EC52E42A
:100680000E944F13A70196010E94EB1260938E0304
:1006900070938F0380939003909391030E94EF0BCC
:1006A0004B015C010E94B713072E000C880B990BBD
:1006B0000E94EA136B017C019B01AC01C501B401EE
:1006C0000E94EA1220E030E048EC52E40E947614E6
:1006D0000E94B7138B019C01CB016AE070E00E947D
:1006E000D914B801681B790B069714F0665F7F4F29
:1006F000072E000C880B990B0E94EA1320E030E0D3
:1007000048EC52E40E944F13A70196010E94EB129D
:100710006093920370939303809394039093950353
:1007200080E009C0809188028D7F80938802C0D5C7
:1007300081E001C083E01F910F91FF90EF90DF9067
:10074000CF90BF90AF909F908F900895CF93DF93FD
:10075000CDB7DEB7A7970FB6F894DEBF0FBECDBFFB
:100760002E9A47985D9828985C9A5A9A5B9A269A8E
:10077000279A3F9A559A209A60E87AE186E090E0BD
:1007800092D587E2CDD59091880280FB90F9909325
:10079000880280E7C5D59091880280FB91F99093FB
:1007A00088028091880281FF02C04FD75D9A8091B4
:1007B000880280FF05C085D68BE392E06AD6289A2E
:1007C00080E090E0FC01EE0FFF1FE857FD4F128222
:1007D0001182019682389105A9F780918802877F5E
:1007E00080938802809188028F7E80938802809116
:1007F00088028B7F8093880280E090E0A4E3B2ECD3
:1008000080938E0390938F03A0939003B0939103F2
:1008100010929203109293031092940310929503F6
:1008200040E850E06BEB71E081EB91E0E1D744E10F
:1008300050E060E170E087E692E00E94E01940E15C
:1008400050E060E070E087E592E00E94E01984B734
:10085000877F84BF88E10FB6F89480936000109280
:1008600060000FBE90E080E80FB6F89480936100BE
:10087000909361000FBE0E94820E69E472E080E0F6
:1008800091E00E9425128091810080688093810010
:10089000809181008064809381008091880280FF34
:1008A00018C060E080E0E3D580E393E066D660E0C6
:1008B00081E0DDD58BE193E060D660E082E0D7D5C2
:1008C00086E093E05AD660E083E0D1D581EF92E0F4
:1008D00054D62FEF33ED80E3215030408040E1F7D4
:1008E00000C0000047985D9828989FEFE9E6F8E17E
:1008F0009150E040F040E1F700C00000789409E436
:1009000012E06E012BE0C20ED11CCE0101961C013B
:100910002E019CE1490E511C3E01E5E16E0E711C59
:100920004E01F3E28F0E911C9BE3E92E92E0F92E2B
:1009300081EB91E0EAD7811120C080E091E00E9434
:10094000E81197FD2DC0B82E682F81EB91E064D798
:100950002AE0B21225C080913001882339F081EB62
:1009600091E052D71092300147981AC080918802C6
:10097000886080938802479A13C081EB91E044D746
:1009800081E080933001479A8CEC92E09F938F93A3
:100990001F930F930E94DD170F900F900F900F90F1
:1009A0008091880283FFDBC380918802877F8093D8
:1009B000880281EB91E0BDD7029709F02FC24AE08F
:1009C00061E371E081EB91E06BD780913101893473
:1009D00009F4A2C008F07BC0843409F48AC008F08E
:1009E00068C0813409F015C2609167027091680295
:1009F0008091690290916A0244E0E0DD9F938F93B9
:100A000088EC92E09F938F931F930F930E94DD17C2
:100A100060916B0270916C0280916D0290916E02F8
:100A200044E0CCDD9F938F9384EC92E09F938F936F
:100A30001F930F930E94DD1760916F0270917002F7
:100A4000809171029091720244E0B8DD9F938F9380
:100A500080EC92E09F938F931F930F930E94DD177A
:100A60006091730270917402809175029091760288
:100A700044E0A4DD9F938F938CEB92E09F938F9340
:100A80001F930F930E94DD1780917A028F938091BC
:100A900079028F93809178028F93809177028F9360
:100AA00086EB92E09F938F931F930F930E94DD1725
:100AB00083C0873409F499C1883409F0AAC114BCF1
:100AC00015BC17BC2F9A2E986DE272E02FC38E349E
:100AD00009F497C138F48C3409F47FC18D3409F4DA
:100AE00084C097C1803509F46DC0823509F436C1E0
:100AF00090C144E150E065E573E087E692E00E9432
:100B0000B31744E150E060E170E087E692E00E94B4
:100B1000F01961EB72E00AC36091570270915802BC
:100B20008091590290915A0244E048DD9F938F933F
:100B30008DEA92E09F938F931F930F930E94DD178E
:100B400060915B0270915C0280915D0290915E0207
:100B500044E034DD9F938F9389EA92E09F938F93D3
:100B60001F930F930E94DD1760915F0270916002E6
:100B7000809161029091620244E020DD9F938F9307
:100B800085EA92E09F938F931F930F930E94DD1746
:100B90006091630270916402809165029091660297
:100BA00044E00CDD9F938F9380EA92E09F938F93B4
:100BB0001F930F930E94DD170FB6F894DEBF0FBE90
:100BC000CDBFC9C240E150E065E473E087E592E043
:100BD0000E94B31740E150E060E070E087E592E0EA
:100BE0000E94F0196BE972E0A1C24E9903C083E341
:100BF00091E0E8C02F982E98FDDCB82E85E690E0B5
:100C00004A990BC0EFE8F1E03197F1F700C000001E
:100C10000197B1F789EF90E0D5C04B99F3CF1092CF
:100C20008D03809188028F7E80938802809181005D
:100C3000816080938100B59A80916F00806280937B
:100C40006F002F9A89E893E12091880224FD0EC05D
:100C5000EFE8F1E03197F1F700C000000197A1F74C
:100C6000A2DC2F982E9A87EC90E0ACC09CDC2F98E9
:100C70002E9AB11033C060918E0370918F038091D2
:100C800090039091910341E099DC9F938F931F9281
:100C900084E58F9380EC90E09F938F931F930F9345
:100CA0000E94DD17609192037091930380919403E9
:100CB0009091950341E082DC9F938F931F9288E48B
:100CC0008F9389EB90E09F938F931F930F930E94D4
:100CD000DD170FB6F894DEBF0FBECDBF1F9283E4C1
:100CE0008F9385EB90E09F938F931F930F930E94B8
:100CF000DD170F900F900F900F900F900F90A12C79
:100D0000B12CF501EE0FFF1FE857FD4F8181928155
:100D10009F938F9381EB90E09F938F931F930F93FB
:100D20000E94DD17FFEFAF1ABF0A0F900F900F90D0
:100D30000F900F900F9021E8A216B10411F7809147
:100D40008B0390918C039F938F938CEA90E09F93F9
:100D50008F9389E492E09F938F93F5C14BDC8111CF
:100D600027C060918E0370918F03809190039091C2
:100D7000910341E023DC9F938F9387E992E09F9357
:100D80008F931F930F930E94DD17609192037091D0
:100D90009303809194039091950341E00FDC9F931E
:100DA0008F9382E992E09F938F931F930F9302CFCB
:100DB000813031F482D21F928F938CE592E0BFC1D3
:100DC00082E392E09F938F931F930F930E94DD170E
:100DD0000F900F900F900F90BEC114BC15BC17BCA4
:100DE0002F982E9868E272E0A1C187E087BD84B594
:100DF000826484BD85B5816085BD2E9863E272E012
:100E000095C114BC15BC17BC2F982E9A6EE172E0E8
:100E10008DC11F928F9385EF91E091C140E261E314
:100E200071E081EB91E03CD580913101833509F48B
:100E300059C0873509F4BDC08F3409F07CC140E248
:100E400061E371E081EB91E02BD560E070E00E94FE
:100E50004215609357027093580280935902909301
:100E60005A0240E261E371E081EB91E019D560E064
:100E700070E00E94421560935B0270935C02809365
:100E80005D0290935E0240E261E371E081EB91E0EC
:100E900007D560E070E00E94421560935F02709396
:100EA0006002809361029093620240E261E371E02C
:100EB00081EB91E0F5D460E070E00E944215609310
:100EC000630270936402809365029093660240E12E
:100ED00050E060E070E087E592E00E94F0196BEE70
:100EE00071E024C140E261E371E081EB91E0D8D48C
:100EF00060E070E00E9442156093670270936802A0
:100F00008093690290936A0240E261E371E081EBB1
:100F100091E0C6D460E070E00E94421560936B02DD
:100F200070936C0280936D0290936E0240E261E3D5
:100F300071E081EB91E0B4D460E070E00E94421572
:100F400060936F02709370028093710290937202AB
:100F500040E261E371E081EB91E0A2D460E070E0F7
:100F60000E9442156093730270937402809375021D
:100F7000909376024AE061E371E081EB91E090D4D6
:100F80004AE050E060E070E00E949A1660937702B9
:100F9000709378028093790290937A0244E150E052
:100FA00060E170E087E692E00E94F01960EF71E086
:100FB000BDC08091880280FFB7C040E2B60181EBDE
:100FC00091E06ED440E2B10181EB91E069D440E25E
:100FD000B20181EB91E064D440E2B30181EB91E096
:100FE0005FD44AE0B40181EB91E05AD436D28BA1B0
:100FF0008823D1F0DF92CF9285EE91E09F938F937B
:10100000FF92EF920E94DD179F928F928CED91E0FC
:101010009F938F93FF92EF920E94DD170FB6F89483
:10102000DEBF0FBECDBF10C0DF92CF928EEC91E03D
:101030009F938F93FF92EF920E94DD170F900F9076
:101040000F900F900F900F9060E081E010D23F92D0
:101050002F92EFEBF1E0FF93EF93FF92EF920E945C
:10106000DD1760E082E003D25F924F9283EB91E064
:101070009F938F93FF92EF920E94DD177F926F9262
:1010800080EB91E09F938F93FF92EF920E94DD1788
:1010900060E083E0ECD1809188020FB6F894DEBF67
:1010A0000FBECDBF81FF34C060918E0370918F035E
:1010B000809190039091910341E080DA1F922FED8F
:1010C0002F939F938F9387EA91E09F938F93FF9243
:1010D000EF920E94DD176AE083E0C9D1609192032C
:1010E00070919303809194039091950341E066DAA7
:1010F0009F938F938EE991E09F938F93FF92EF924E
:101100000E94DD170FB6F894DEBF0FBECDBF0CC036
:1011100089E891E09F938F93FF92EF920E94DD17F1
:101120000F900F900F900F9064E871E080E091E0D5
:101130000E94461110C01F928F9382E691E09F9308
:101140008F931F930F930E94DD170F900F900F90B6
:101150000F900F900F9081EB91E056D3479880E06D
:1011600091E00E94D3110E940811E2CB1F920F92CE
:101170000FB60F9211248F939F93EF93FF93E091FB
:101180008D0381E08E0F80938D03F0E080918600C7
:1011900090918700EE0FFF1FE857FD4F92838183E8
:1011A00080918D03823829F4809188028061809338
:1011B000880285B1805885B910928500109284000C
:1011C000FF91EF919F918F910F900FBE0F901F9005
:1011D00018955D9A089528985D98E8E8F2E0808176
:1011E0008B7F8083089580E091E00E942111882305
:1011F00011F0289A08952898089580E091E00C94C1
:101200003A12FC0190898091880290FB82F98093C8
:1012100088028091880282FF02C0289A0895289847
:101220000895292F33272230310559F02330310515
:1012300069F021303105E9F482E190E025E234E003
:101240001CC08EE390E027EE33E017C09927813071
:10125000910549F028F0029761F4E9E6F3E005C052
:10126000E3EEF3E002C0E3EAF3E0849190E09F0153
:1012700004C080E090E020E030E0FA013183208378
:1012800008959B01AC0160E074E284EF90E00E945D
:10129000EC142F503109C901969587952170280FBC
:1012A0002093B8000895EBE7F2E010821182E9CFB5
:1012B000EBE7F2E080811082089580917C0208952E
:1012C00080917B02811107C084EA8093BC008091E9
:1012D000BC0087FFFCCF089584E98093BC0008958B
:1012E00090917B0291111BC08093BB0084E8809396
:1012F000BC008091BC0087FFFCCF8091B900887F43
:10130000883169F08091B900887F803441F081E0B4
:1013100080937B028091B900887F80937C0208953E
:10132000CF93C82FCDDF8C2F880FDADF84E980932D
:10133000BC00EBE7F2E09081108281E08927CF9139
:10134000089590917B02911109C08093BB0084E8BD
:101350008093BC008091BC0087FFFCCF08959091E2
:101360007B02911124C090E4899F9001112424688C
:101370002093BC009091BC0097FFFCCF2091B90056
:10138000287F30E0811103C088E590E002C080E54D
:1013900090E08217930741F081E080937B02809177
:1013A000B900887F80937C028091BB00089580E023
:1013B0000895EF92FF920F931F93CF93DF9300D086
:1013C00000D0CDB7DEB790917D02692B382F3295D2
:1013D0003F7030FF02C020E101C020E031FD2062FB
:1013E00032FD2064387009F02068262B80FF02C08F
:1013F00090E101C090E081FD906282FD906483FDE8
:101400009068962B822F846089832A83892F846039
:101410008B839C8355DF8EE463DF8E010F5F1F4F4C
:101420007E0185E0E80EF11CF80181918F0189DFD2
:101430000E151F05C9F750DF8FED91E00197F1F709
:1014400000C000000F900F900F900F90DF91CF9190
:101450001F910F91FF90EF90089560E081E0A9DF68
:101460008FE89CE40197F1F700C0000008958130F7
:1014700031F0823031F0833031F090E005C098E2F5
:1014800003C094E101C094E580E8860F60E0890F15
:1014900090CFFC018EE0DF011D928A95E9F782E092
:1014A000838389EB9AE091878087089588E0809311
:1014B0007D0206DF8EE414DF80917D02806F41DFC4
:1014C0000BCFEF92FF920F931F93CF93DF9300D038
:1014D00000D0CDB7DEB7EADFF3DE8EE401DF809126
:1014E0007D02806F2EDFF8DE28988FE59AEE019757
:1014F000F1F700C0000080E389838A838B8380E258
:101500008C83DEDE8EE4ECDEFE0131967F0110E09E
:10151000F70101917F0180917D028460802B11DFB2
:1015200080917D02802B0DDF111106C08FE89CE4B5
:101530000197F1F700C000001F5F143049F7CCDEBF
:1015400060E088E236DF60E088E033DF60E086E07C
:1015500030DF60E08CE02DDF0F900F900F900F9048
:10156000DF91CF911F910F91FF90EF9076CF61E0C7
:1015700020CFFDDF80E090E00895CF93DF93EC0172
:10158000FE018491882319F02196F1DFF9CFDF91D4
:10159000CF910895CF93DF9300D0CDB7DEB7898385
:1015A0006A83FE0131969E012D5F3F4F9FEF51E30D
:1015B0008191982788E097FF03C0990F952701C074
:1015C000990F8150C1F7E217F30791F781E0941367
:1015D00080E00F900F90DF91CF910895CF93DF932C
:1015E000EC016EDE80EE7CDE8D2FABDE8C2FA9DE73
:1015F000DF91CF9171CE1F93CF93DF9388EC9FEE55
:10160000EDDF5EDE81EE6CDE81E0A9DED82F81E0C9
:10161000A6DEC82F81E0A3DE182F5EDE412F6C2FDF
:101620008D2FB8DF882351F08C2F90E09D2B8F7386
:1016300098708730984021F480E003C081E001C0B9
:1016400083E0DF91CF911F910895CF9387E195E3D8
:10165000C5DF8FEB93E00197F1F700C00000CBDF0F
:10166000C82F88E990EBBADF8FEB93E00197F1F791
:1016700000C0000010927F028C2FCF910895EF924E
:10168000FF920F931F93CF93DF9387E195E3A6DF3C
:101690008FEB93E00197F1F700C0000080917F028B
:1016A000882341F08CE990E699DF8FE99FE001976C
:1016B000F1F707C086E698E791DF8FE59AEE01978C
:1016C000F1F700C00000FCDD81EE0ADE81E047DEBC
:1016D000082F81E044DED82F81E041DEE82E81E052
:1016E0003EDE182F81E03BDEC82F81E038DEF82E89
:1016F000F3DD88E990EB72DF8FEB93E00197F1F770
:1017000000C000004E2D6D2F802F44DF882309F488
:1017100041C04F2D6C2F812F3DDF8823D9F16D2FD4
:1017200070E0702B80E090E00E94E81320E030E051
:101730004FE253E40E94761420E03FEF4FE757E476
:10174000AED720E030E044E352E444D76093800217
:101750007093810280938202909383026C2F70E0D9
:10176000712B80E090E00E94E81320E03FEF4FE70C
:1017700057E495D720E030E048EC52E40E9476141C
:10178000609384027093850280938602909387020F
:1017900080E015C080E090E0A4E3B2EC809380028A
:1017A00090938102A0938202B093830210928402EC
:1017B00010928502109286021092870282E0DF91D9
:1017C000CF911F910F91FF90EF900895609180024B
:1017D00070918102809182029091830208956091BC
:1017E000840270918502809186029091870208950B
:1017F000FC017183608355834483178216821186AE
:101800001086138212820895FC01178216821186B7
:101810001086138212820895FC01868197810196B9
:10182000248135818217930711F480E090E02085B0
:1018300031858217930771F0A081B181A80FB91F7C
:101840006C939783868382819381019693838283AD
:1018500081E0089580E00895FC01808591852681CE
:10186000378128173907D1F0019691878087248125
:1018700035818217930711F411861086A081B181FA
:1018800080859185A80FB91F8C91DB018C93828193
:10189000938101979383828381E0089580E0089586
:1018A0009F92AF92BF92CF92DF92EF92FF920F93EF
:1018B0001F93CF93DF931F92CDB7DEB75C018B01EF
:1018C000942E6B017601E01AF10ABE016F5F7F4F23
:1018D000C501C2DF882339F08981891521F0F6011D
:1018E00081936F01EFCFF801EE0DFF1D1082C8014B
:1018F0000F90DF91CF911F910F91FF90EF90DF90AC
:10190000CF90BF90AF909F900895FC0126813781C2
:101910002F5F3F4F848195812817390711F420E00C
:1019200030E081E0408551854217530709F080E09F
:101930000895FC01828193810895CF92DF92EF9206
:10194000FF920F931F93CF93DF93EC018B017A01EA
:1019500068D1811134C0E114F10439F0F7018081BC
:101960009181081B190BC80FD91FC12CD12C01154F
:10197000110521F18091E80085FD15C08091E800F6
:101980008E778093E800E114F10449F0F70180813B
:101990009181C80ED91ED182C08285E010C041D18C
:1019A000882329F30CC0FE0184918093F1002196D5
:1019B00001501109FFEFCF1ADF0AD9CF80E0DF9184
:1019C000CF911F910F91FF90EF90DF90CF900895EE
:1019D0002091A0033091A1032617370748F0611525
:1019E000710539F42091E8002E772093E80001C0BA
:1019F000B901FC0120E06115710571F18EB38823F6
:101A0000E9F18530E9F18091E80083FD3BC08091E8
:101A1000E80082FD2DC08091E80080FFECCF20918E
:101A2000F3008091F20090E0922B6115710551F066
:101A30008830910538F421912093F10061507109AB
:101A40000196F3CF21E0089709F020E08091E800AB
:101A50008E778093E800CFCF2111D0CF09C08EB30D
:101A6000882361F0853061F08091E80083FD0AC031
:101A70008091E80082FFF3CF80E0089582E008952E
:101A800083E0089581E008952091A0033091A1039F
:101A90002617370748F06115710539F42091E800E1
:101AA0002E772093E80001C0B901FC0120E0611508
:101AB000710589F18EB3882309F43FC0853009F49C
:101AC0003EC08091E80083FD3CC08091E80082FD2B
:101AD0002EC08091E80080FFEACF2091F300809132
:101AE000F20090E0922B6115710559F08830910554
:101AF00040F424912093F1003196615071090196D0
:101B0000F2CF21E0089709F020E08091E8008E777D
:101B10008093E800CCCF2111CDCF09C08EB38823AC
:101B200061F0853061F08091E80083FD0AC080910A
:101B3000E80082FFF3CF80E0089582E0089583E01B
:101B4000089581E008958F708093E900EBEEF0E056
:101B5000808181608083EDEEF0E010826093EC0084
:101B600040838091EE00881F8827881F08950F9377
:101B70001F93CF93DF93062FEC0110E0101771F144
:101B80006881611103C01F5F2596F8CF2C81A98160
:101B9000BA819B81862F8F70873010F080E01FC044
:101BA000223010F442E001C046E0E8E0F0E020E03E
:101BB000EA17FB0720F42F5FEE0FFF1FF9CF2295E6
:101BC000207F422B50E4959F90011124661F6627C9
:101BD000661F622BB8DF8111D6CFE0CF81E0DF91A5
:101BE000CF911F910F91089580919A0387FF0FC0A5
:101BF0008091E80082FD04C08EB38111F9CF10C03E
:101C00008091E8008B770AC08EB3882349F08091D9
:101C1000E80080FFF9CF8091E8008E778093E8009C
:101C200008952091E4003091E50095E64091EC00A4
:101C3000842F817040FF22C08091E80080FD1CC08D
:101C40008EB3882399F0853099F08091EB0085FD63
:101C500011C04091E4005091E5002417350731F39D
:101C6000915011F09A01E2CF84E0089582E0089546
:101C700083E0089581E0089580E008954091E800B0
:101C800042FFDECF08950F931F93CF93DF934AD087
:101C900051D0C8EDD0E088818F77888388818068B3
:101CA000888388818F7D888319BC1EBA1092960321
:101CB000109298031092970300EE10E0F8018081D3
:101CC0008B7F808388818160888342E060E080E050
:101CD0003ADFE1EEF0E080818E7F8083E2EEF0E09B
:101CE000808181608083808188608083F801808129
:101CF0008E7F8083888180618883DF91CF911F915F
:101D00000F910895E8EDF0E080818F7E8083E7ED0C
:101D1000F0E080818160808384E082BF81E08093F5
:101D20009903B1CFE8EDF0E080818E7F808310923F
:101D3000E20008951092DA001092E10008951F92D7
:101D40000F920FB60F9211242F933F934F935F93EF
:101D50006F937F938F939F93AF93BF93EF93FF9373
:101D60008091E10082FF0AC08091E20082FF06C0FC
:101D70008091E1008B7F8093E10049D28091DA006D
:101D800080FF1BC08091D80080FF17C08091DA00CF
:101D90008E7F8093DA008091D90080FF0BC080E1B4
:101DA00089BD82E189BD09B400FEFDCF81E08EBB13
:101DB00010DA03C019BC1EBA0EDA8091E10080FF70
:101DC00017C08091E20080FF13C08091E2008E7FF7
:101DD0008093E2008091E20080618093E200809134
:101DE000D80080628093D80019BC85E08EBB0FD2EA
:101DF0008091E10084FF2EC08091E20084FF2AC020
:101E000080E189BD82E189BD09B400FEFDCF8091EA
:101E1000D8008F7D8093D8008091E1008F7E8093E1
:101E2000E1008091E2008F7E8093E2008091E200E9
:101E300081608093E20080919603882311F084E012
:101E400007C08091E30087FD02C081E001C083E00C
:101E50008EBBDDD18091E10083FF26C08091E2003E
:101E600083FF22C08091E100877F8093E10082E0C0
:101E70008EBB109296038091E1008E7F8093E100EB
:101E80008091E2008E7F8093E2008091E200806189
:101E90008093E20042E060E080E055DE8091F00057
:101EA00088608093F000B3D1FF91EF91BF91AF9123
:101EB0009F918F917F916F915F914F913F912F9162
:101EC0000F900FBE0F901F9018951F920F920FB694
:101ED0000F9211242F933F934F935F936F937F93B0
:101EE0008F939F93AF93BF93CF93DF93EF93FF9322
:101EF000C091E900CF708091EC00D82FD17080FDA7
:101F0000D0E81092E9008091F000877F8093F00084
:101F100078941ED01092E9008091F0008860809340
:101F2000F000CD2BCF70C093E900FF91EF91DF91CE
:101F3000CF91BF91AF919F918F917F916F915F9161
:101F40004F913F912F910F900FBE0F901F901895BA
:101F50001F93CF93DF93CDB7DEB7AA970FB6F89450
:101F6000DEBF0FBECDBFEAE9F3E08091F1008193BF
:101F700023E0E23AF207C9F740D98091E80083FFF5
:101F80002EC180919A0390919B03953009F483C0F0
:101F900030F49130A9F168F0933091F120C198307C
:101FA00009F4EEC0993009F4FAC0963009F017C16F
:101FB00093C0803821F0823809F011C108C08091A7
:101FC000970390919803992389F082600FC08091C4
:101FD0009E038F70873008F002C18093E9008091E2
:101FE000EB0085FB882780F91092E9009091E800CA
:101FF000977F9093E8008093F1001092F100CBC09E
:10200000282F2D7F09F0EBC0882319F0823061F072
:10201000E6C080919C03813009F0E1C0933009F063
:1020200080E0809398032EC080919C0381112AC088
:1020300080919E038F702FEF280F263008F0CFC0BD
:102040008093E9002091EB0020FF1CC0933021F425
:102050008091EB00806214C09091EB0090619093AE
:10206000EB0021E030E0A90102C0440F551F8A9522
:10207000E2F74093EA001092EA008091EB0088605A
:102080008093EB001092E9008091E800877F8093B5
:10209000E800AADDA4C08111A2C010919C031F77A3
:1020A0008091E3008078812B8093E3008091E800A9
:1020B000877F8093E80098DD8091E80080FFFCCF67
:1020C0008091E30080688093E300111102C082E0F8
:1020D00001C083E08EBB83C08058823008F07FC08F
:1020E00080919C0390919D038C3D53E0950771F581
:1020F00083E08A838AE289834FB7F894DE011396DE
:1021000020E03EE051E2E32FF0E050935700E491ED
:1021100020FF03C0E295EF703F5FEF708E2F90E0DD
:10212000EA3010F0C79601C0C0968D939D932F5F43
:10213000243149F74FBF8091E800877F8093E80002
:102140006AE270E0CE01019643DC14C060919E0308
:1021500070919F03AE014F5F5F4F63D8BC01892B25
:1021600009F43DC09091E800977F9093E800898141
:102170009A818ADC8091E8008B778093E8002FC0F9
:10218000803869F58091E800877F8093E80080912E
:1021900096038093F1008091E8008E7778CF8111CB
:1021A0001EC080919C0390919D0399270297BCF4D7
:1021B0008091E800877F8093E80080919C03809362
:1021C000960312DD80919603811106C08091E30091
:1021D00087FD02C081E001C084E08EBB04D88091FD
:1021E000E80083FF0AC08091E800877F8093E800C1
:1021F0008091EB0080628093EB00AA960FB6F89472
:10220000DEBF0FBECDBFDF91CF911F91089508951E
:10221000CF938EB3882399F0C091E900CF7090914D
:10222000EC00892F817090FD80E8C82B1092E900A6
:102230008091E80083FD8CDECF70C093E900CF91E0
:102240000895CF93DF93EC01FC0170968BE0DF01E2
:102250001D928A95E9F782E08C83898783E08E87D7
:1022600061E0CE01019683DC882361F061E0CE015C
:1022700006967DDC882331F061E0CE010B96DF917C
:10228000CF9175CC80E0DF91CF9108950F931F938C
:10229000CF93DF932EB32430C9F4FC010489158950
:1022A00026893789012B022B032B81F0EB018181D9
:1022B0008F708093E900CB015FD640E050E0BC0115
:1022C000CE01DF91CF911F910F9137CB82E0DF914B
:1022D000CF911F910F9108950F931F93CF932EB31A
:1022E0002430F9F4FC010489158926893789012BEA
:1022F000022B032BB1F0C62F81818F708093E900F0
:102300008091E80085FF04C0C093F10080E00AC01E
:102310008091E8008E778093E80083DC8823A1F326
:1023200001C082E0CF911F910F910895CF93C82FE4
:10233000FB01682F84859585CFDF811103C08C2F29
:1023400090E002C08FEF9FEFCF9108952EB324301D
:1023500041F5FC014489558966897789452B462BCF
:10236000472BF9F081818F708093E9002091F30071
:102370008091F20090E0922B892B89F09091E800F7
:102380008091E8008E778093E80095FD08C049DCD5
:10239000811108C08091E8008E778093E80080E08A
:1023A000089582E008952EB3243089F4FC01448915
:1023B000558966897789452B462B472B41F021812A
:1023C0002F702093E9002091E80020FDBFCF0895F1
:1023D0002EB3243019F08FEF9FEF0895FC0144894C
:1023E000558966897789452B462B472BA1F3868132
:1023F0008F708093E9008091E80082FFECCF2091FC
:10240000F3008091F20090E0922B892B21F0209133
:10241000F10030E002C02FEF3FEF4091F3008091D8
:10242000F20090E0942B892B29F48091E8008B77BF
:102430008093E800C9010895FC0184859585C8DF73
:1024400097FF02C08EEF9FEF0895FB012EE0DB01A6
:102450001D922A95E9F723E0238326E931E13187AC
:1024600020872CE132E1338722879587848708957E
:1024700008950895CF93DF93EC018091E80083FFE6
:10248000A6C0888190E020919E0330919F03281779
:10249000390709F09CC080919B03813261F020F4E0
:1024A000803209F43EC093C0823209F46BC083329B
:1024B00009F47DC08CC080919A03813A09F087C0ED
:1024C0008091E800877F8093E8008091E80080FF9A
:1024D000FCCF8C899D89AE89BF898093F100492FFB
:1024E0005A2F6B2F77274093F100AD01662777278E
:1024F0004093F1008B2F9927AA27BB278093F100E7
:10250000888D8093F100898D8093F1008A8D80936E
:10251000F1008091E8008E778093E800DF91CF9101
:1025200063CB80919A03813209F051C08091E80019
:10253000877F8093E8008091E80082FD04C08EB31D
:102540008111F9CF44C03091F1002091F1009091B8
:10255000F1008091F1003C8B2D8B9E8B8F8B8091B5
:10256000F100888F8091F100898F8091F1008A8F2E
:102570008091E8008B778093E80036DBCE01DF9115
:10258000CF9176CF80919A03813209F58091E8004E
:10259000877F8093E80028DB80919C0390919D03C6
:1025A000998B888BCE01DF91CF910C94010980919A
:1025B0009A03813261F48091E800877F8093E8007C
:1025C00013DB60919C03CE01DF91CF9152CFDF915D
:1025D000CF9108955058BB27AA270ED04DC13ED1A8
:1025E00030F043D120F031F49F3F11F41EF433C199
:1025F0000EF4E095E7FB29C1E92F4FD180F3BA171C
:10260000620773078407950718F071F49EF567C198
:102610000EF4E0950B2EBA2FA02D0B01B9019001FD
:102620000C01CA01A0011124FF27591B99F0593F41
:1026300050F4503E68F11A16F040A22F232F342F89
:102640004427585FF3CF469537952795A795F040D7
:102650005395C9F77EF41F16BA0B620B730B840BEC
:10266000BAF09150A1F0FF0FBB1F661F771F881FA4
:10267000C2F70EC0BA0F621F731F841F48F48795FC
:1026800077956795B795F7959E3F08F0B3CF9395EB
:10269000880F08F09927EE0F9795879508950CD02D
:1026A000EBC0E3D040F0DAD030F021F45F3F19F016
:1026B000CCC0511115C1CFC0F0D098F39923C9F304
:1026C0005523B1F3951B550BBB27AA276217730738
:1026D000840738F09F5F5F4F220F331F441FAA1FEC
:1026E000A9F333D00E2E3AF0E0E830D091505040AC
:1026F000E695001CCAF729D0FE2F27D0660F771F5A
:10270000881FBB1F261737074807AB07B0E809F03B
:10271000BB0B802DBF01FF2793585F4F2AF09E3FD0
:10272000510568F092C0DCC05F3FECF3983EDCF3EB
:10273000869577956795B795F7959F5FC9F7880F49
:10274000911D9695879597F90895E1E0660F771F9B
:10275000881FBB1F621773078407BA0720F0621B2C
:10276000730B840BBA0BEE1F88F7E095089504D025
:102770006894B111B5C0089598D088F09F5790F033
:10278000B92F9927B751A0F0D1F0660F771F881F96
:10279000991F1AF0BA95C9F712C0B13081F09FD0D5
:1027A000B1E008959CC0672F782F8827B85F39F073
:1027B000B93FCCF3869577956795B395D9F73EF4F5
:1027C00090958095709561957F4F8F4F9F4F08959D
:1027D000E89409C097FB3EF49095809570956195BB
:1027E0007F4F8F4F9F4F9923A9F0F92F96E9BB2771
:1027F0009395F695879577956795B795F111F8CFED
:10280000FAF4BB0F11F460FF1BC06F5F7F4F8F4F57
:102810009F4F16C0882311F096E911C0772321F04D
:102820009EE8872F762F05C0662371F096E8862FE5
:1028300070E060E02AF09A95660F771F881FDAF73C
:10284000880F9695879597F9089597F99F6780E87F
:1028500070E060E008959FEF80EC089500240A94F2
:102860001616170618060906089500240A9412166B
:102870001306140605060895092E0394000C11F49E
:10288000882352F0BB0F40F4BF2B11F460FF04C04B
:102890006F5F7F4F8F4F9F4F089557FD9058440FA4
:1028A000551F59F05F3F71F04795880F97FB991FAF
:1028B00061F09F3F79F0879508951216130614066C
:1028C000551FF2CF4695F1DF08C0161617061806F9
:1028D000991FF1CF86957105610508940895E894D4
:1028E000BB2766277727CB0197F908950BD0C4CF74
:1028F000B5DF28F0BADF18F0952309F0A6CFABCFEB
:102900001124EECFCADFA0F3959FD1F3950F50E0CD
:10291000551F629FF001729FBB27F00DB11D639F91
:10292000AA27F00DB11DAA1F649F6627B00DA11D37
:10293000661F829F2227B00DA11D621F739FB00DDD
:10294000A11D621F839FA00D611D221F749F33274D
:10295000A00D611D231F849F600D211D822F762FE6
:102960006A2F11249F5750408AF0E1F088234AF0E3
:10297000EE0FFF1FBB1F661F771F881F915050402F
:10298000A9F79E3F510570F060CFAACF5F3FECF3EF
:10299000983EDCF3869577956795B795F795E7951B
:1029A0009F5FC1F7FE2B880F911D9695879597F92C
:1029B000089597FB072E16F4009406D077FD08D0F3
:1029C0002DD007FC05D03EF4909581959F4F08953A
:1029D000709561957F4F0895A1E21A2EAA1BBB1B2B
:1029E000FD010DC0AA1FBB1FEE1FFF1FA217B307DB
:1029F000E407F50720F0A21BB30BE40BF50B661FF1
:102A0000771F881F991F1A9469F7609570958095B4
:102A100090959B01AC01BD01CF010895AA1BBB1B82
:102A200051E107C0AA1FBB1FA617B70710F0A61BCE
:102A3000B70B881F991F5A95A9F780959095BC01EF
:102A4000CD010895EF920F931F93CF93DF93E80189
:102A500047FF02C034E101C034E0E42FFF27E7FD67
:102A6000F095F7FF03C0F195E195F109E32E022FF0
:102A70002E2FAE01D6D4CE01DF91CF911F910F91B1
:102A8000EF900895A0E0B0E0E7E4F5E1E7C78B013F
:102A90006115710521F0DB018C9311969C93EC017B
:102AA0005E01BFEFAB1ABB0A7501C8808C2D90E0A8
:102AB00052D2892B11F0E501F3CFEDE2CE1208C01E
:102AC0007E01F2E0EF0EF11CC980DD24D39409C031
:102AD0002BE2C21205C07E0142E0E40EF11CC98067
:102AE000D12CE701219743E050E06FE374E0CE0181
:102AF0004CD2892BB9F4239645E050E06AE374E0A8
:102B0000CE0143D2892B09F425960115110519F040
:102B1000D801CD93DC93D11000C160E070E080E873
:102B20009FE704C143E050E067E374E0CE012DD29B
:102B3000892B59F40115110509F4F4C0B2E0EB0E2C
:102B4000F11CF801F182E082EDC0F70160E070E075
:102B5000CB01C0E0D0E07F01A0EDAA2EAC0C29E0B3
:102B60002A1528F14D2D4260B42E2D2D2870D2FE4D
:102B700004C0211124C0219622C021112197A5E073
:102B8000B0E09B01AC015AD7660F771F881F991FD1
:102B90006A0D711D811D911D6839A9E97A078A079F
:102BA000A9E19A0760F0BD2DB660BB2E08C02EEFDC
:102BB000A2120AC0D3FC50C04D2D4860B42E3196ED
:102BC000D701CC90DB2CC7CF2C2D2F7D253409F0DD
:102BD00043C0A081AD3241F4BD2DB061DB2E7F0139
:102BE00022E0E20EF11C0CC07F01AB3231F04FEF5E
:102BF000E41AF40A21E030E006C0A2E0EA0EF11C7B
:102C0000A18122E030E0A053AA3018F0E21AF30AC2
:102C100023C0F70120E030E02038BCE03B075CF443
:102C2000A901440F551F440F551F240F351F220FB4
:102C3000331F2A0F311DAF014F5F5F4F7A01A08113
:102C4000A053AA3010F4FA01E7CFD4FE03C03195A7
:102C500021953109C20FD31FD1FE09C001151105FD
:102C600031F0E1E0EE1AF108D801ED92FC92B0DD0E
:102C70002D2D2370233019F04B015C0106C04B0150
:102C80005C01B7FAB094B7F8B09420E030E0A90145
:102C9000C501B401AAD1882309F43CC0D7FF06C0FE
:102CA000D195C195D10906E514E002C00EE614E005
:102CB0006801B8E1CB1AD10890E2E92EF12CCE15CB
:102CC000DF056CF0F8012591359145915491C501CE
:102CD000B4010CDE4B015C01CE19DF09F0CF0450CA
:102CE0001109F594E7940C151D0549F78A2D880FF5
:102CF0008B2D881F8F3F41F020E030E0A901C501F6
:102D0000B40173D1811106C082E290E09093A303D5
:102D10008093A203C501B40109C060E070E080E8BF
:102D20009FEF04C060E070E080EC9FE7CDB7DEB7B6
:102D3000ECE0B0C62F923F925F926F927F928F929B
:102D40009F92AF92BF92CF92DF92EF92FF920F933A
:102D50001F93CF93DF938B01EA016115710521F079
:102D6000DB018C9311969C93209739F09E012250A1
:102D700031092332310508F0D5C07C016701BFEF6E
:102D8000CB1ADB0A5601F7016080862D90E0E3D074
:102D9000892B11F07601F2CFFDE26F120AC05701C4
:102DA00082E0A80EB11CD70111966C907724739421
:102DB0000BC0BBE26B1207C05701E2E0AE0EB11CC4
:102DC000D70111966C90712CCE018F7E892B89F4DE
:102DD000B0E36B1236C0F50180818F7D8835D1F468
:102DE0006180F2E0AF0EB11C872D8260782EC0E1C9
:102DF000D0E0CA30D10549F1C031D10521F0C83049
:102E0000D10599F409C0CC24CA94DC2CEC2CAFE099
:102E1000FA2E21C0209769F7C8E0D0E0CC24CA94EC
:102E2000DC2CEC2CFFE1FF2E16C06FEF7FEFCB0107
:102E30009E01442737FD4095542FCEDD69017A016C
:102E40000AC02097B1F6CAE0D0E0E9E9CE2EDC2C2A
:102E5000EC2CE9E1FE2EF50160E020E030E0A90174
:102E60004E01AA2497FCA094BA2C1F0170ED572E96
:102E7000560CA9E0A51570F48FEB860D8A3118F475
:102E800099EC592E06C08FE9860D8A3140F589EA02
:102E9000582E560C852D90E08C179D0704F56F3F3A
:102EA000D1F0C216D306E406F50690F0C501B401D0
:102EB000B6D59B01AC01852D90E0A0E0B0E0280FD5
:102EC000391F4A1F5B1F281739074A075B0710F491
:102ED0006FEF01C061E03196D1016C90C6CF011552
:102EE000110551F0662311F0319703C071FE04C043
:102EF0003297D801ED93FC9370FE07C05095409532
:102F0000309521953F4F4F4F5F4F67FF10C082E2D2
:102F100090E09093A3038093A2036FEF7FEF8FEF76
:102F20009FEF07C060E070E080E090E002C0B90170
:102F3000CA01DF91CF911F910F91FF90EF90DF9029
:102F4000CF90BF90AF909F908F907F906F905F9049
:102F50003F902F9008959111B9C4803219F0895093
:102F60008550D0F70895FB01DC0102C005900D9259
:102F700041505040D8F70895FC0105900020E9F732
:102F8000809590958E0F9F1F0895FB01DC014150A5
:102F9000504088F08D9181341CF08B350CF4805EAC
:102FA000659161341CF06B350CF4605E861B611119
:102FB00071F3990B0895881BFCCFA0E0B0E0E2EE1E
:102FC000F7E154C50F811885F801838188608383F8
:102FD000AE01455F5F4F69857A85C8012ED0F80143
:102FE0002381277F2383E4E05DC503D008F481E0DB
:102FF0000895990F0008550FAA0BE0E8FEEF16168A
:103000001706E807F907C0F012161306E407F507DC
:1030100098F0621B730B840B950B39F40A2661F050
:10302000232B242B252B21F408950A2609F4A140F3
:10303000A6958FEF811D811D0895ACE0B0E0E2E21E
:10304000F8E106C57C016B018A01FC01178216823A
:10305000838181FFB0C1CE0101964C01F7019381BC
:10306000F60193FD859193FF81916F01882309F407
:103070009EC1853239F493FD859193FF81916F0153
:10308000853221F4B70190E03AD4E8CF512C312CAD
:1030900020E02032A0F48B3269F030F4803259F015
:1030A000833269F420612CC08D3239F0803339F4D9
:1030B000216026C02260246023C0286021C027FD33
:1030C00027C030ED380F3A3078F426FF06C0FAE01A
:1030D0005F9E300D1124532E13C08AE0389E300DB0
:1030E0001124332E20620CC08E3221F426FD5FC1E4
:1030F000206406C08C3611F4206802C0883641F482
:10310000F60193FD859193FF81916F018111C1CFEC
:10311000982F9F7D9554933028F40C5F1F4FFFE349
:10312000F9830DC0833631F0833771F0833509F0B0
:1031300057C021C0F801808189830E5F1F4F44244E
:103140004394512C540114C03801F2E06F0E711CED
:10315000F801A080B18026FF03C0652D70E002C099
:103160006FEF7FEFC5012C87BFD32C0183012C8526
:103170002F77222E16C03801F2E06F0E711CF80175
:10318000A080B18026FF03C0652D70E002C06FEF04
:103190007FEFC5012C879DD32C012C852068222E22
:1031A000830123FC19C0832D90E048165906A0F432
:1031B000B70180E290E0A3D33A94F5CFF50127FC64
:1031C000859127FE81915F01B70190E098D331107E
:1031D0003A94F1E04F1A51084114510479F7DEC0D6
:1031E000843611F0893631F5F80127FF07C0608178
:1031F0007181828193810C5F1F4F08C06081718152
:10320000882777FD8095982F0E5F1F4F2F76B22E5F
:1032100097FF09C090958095709561957F4F8F4F6E
:103220009F4F2068B22E2AE030E0A4019AD3A82E46
:10323000A81843C0853729F42F7EB22E2AE030E04B
:1032400025C0F22FF97FBF2E8F36C1F018F48835D4
:1032500079F0ADC0803719F0883721F0A8C02F2F42
:103260002061B22EB4FE0DC08B2D8460B82E09C033
:1032700024FF0AC09F2F9660B92E06C028E030E0D8
:1032800005C020E130E002C020E132E0F801B7FEE5
:1032900007C060817181828193810C5F1F4F06C0DE
:1032A0006081718180E090E00E5F1F4FA40159D3CF
:1032B000A82EA818FB2DFF77BF2EB6FE0BC02B2D16
:1032C0002E7FA51450F4B4FE0AC0B2FC08C02B2D0A
:1032D0002E7E05C07A2C2B2D03C07A2C01C0752CB4
:1032E00024FF0DC0FE01EA0DF11D8081803311F431
:1032F000297E09C022FF06C07394739404C0822FF4
:10330000867809F0739423FD12C020FF06C05A2C62
:10331000731418F4530C5718732C731460F4B7011A
:1033200080E290E02C87EBD273942C85F6CF731457
:1033300010F4371801C0312C24FF11C0B70180E30D
:1033400090E02C87DCD22C8522FF16C021FF03C021
:1033500088E590E002C088E790E0B7010CC0822FBA
:10336000867851F021FD02C080E201C08BE227FD8A
:103370008DE2B70190E0C3D2A51430F4B70180E329
:1033800090E0BDD25A94F8CFAA94F401EA0DF11D51
:103390008081B70190E0B3D2A110F6CF332009F4B9
:1033A0005DCEB70180E290E0AAD23A94F7CFF70160
:1033B0008681978102C08FEF9FEF2C96E2E164C374
:1033C000DC01CB01FC01F999FECF06C0F2BDE1BDE5
:1033D000F89A319600B40D9241505040B8F70895D4
:1033E000DC01A40FB51F4150504040F0CB01840FC9
:1033F000951F2E9105D041505040D8F70895262FA3
:10340000F999FECF92BD81BDF89A019700B40216DA
:1034100039F01FBA20BD0FB6F894FA9AF99A0FBE88
:1034200008956F927F929F92AF92BF92CF92DF9258
:10343000EF92FF920F931F93CF93DF93CDB7DEB739
:1034400029970FB6F894DEBF0FBECDBF6A01B22E2A
:10345000102F0C3320F4FF24F394F00E02C04CE341
:10346000F42E0F2D27E0AE014F5F5F4F57D17981CA
:10347000272F2970213031F0E1FC06C0E0FC06C0A6
:1034800060E005C06DE203C06BE201C060E2AE2DFA
:10349000A07173FF36C0662311F084E001C083E0A1
:1034A0008B1510F4B81A01C0B12CA1110BC0F60194
:1034B0008B2D90E2882319F091938150FBCFCB0C98
:1034C000D11CB12C662331F0F601608396012F5F89
:1034D0003F4F6901C6010396E2FE05C02EE4F601E6
:1034E000208331E404C02EE6F601208331E63183E7
:1034F0002283FC012B2D30E22223F1F13193215064
:10350000FBCF72FF40C0662311F084E001C083E06E
:103510008B1510F4B81A01C0B12CA1110BC0F60123
:103520008B2D90E2882319F091938150FBCFCB0C27
:10353000D11CB12C662331F0F601608396012F5F18
:103540003F4F6901C6010396E2FE07C029E4F60178
:1035500020832EE4218326E406C029E6F601208399
:103560002EE6218326E62283FC012B2D30E2222346
:1035700019F031932150FBCFFC01EB0DF11D1082AE
:103580008EEF9FEFB7C0B1E0611101C0B0E04B2FEB
:1035900050E01816190624F49C012F5F3F4F02C01B
:1035A00021E030E0240F351F112329F0412F50E096
:1035B0004F5F5F4F02C040E050E0420F531F2B2D82
:1035C00030E04217530714F4B41A01C0B12C2E2D69
:1035D000287159F4F6012B2D30E2222319F0319392
:1035E0002150FBCFCB0CD11CB12CBB2331F0F60109
:1035F000608396012F5F3F4F6901A1110BC0F60157
:103600002B2D30E3222319F031932150FBCFCB0C2B
:10361000D11CB12CF80E0A81372F3071A32E74FF04
:1036200003C0013309F4FA941F142CF42F2D293010
:1036300018F028E001C021E0682F392F97FF02C061
:1036400060E030E0462F532F612C712C3EE2932E28
:10365000BC01621B71099B01DC01A41BB50BE1E0FD
:10366000F0E0EC0FFD1FAE0FBF1FE12EF12CF19427
:10367000E194F1084F3FFFEF5F0731F4F6019082CC
:10368000B6016F5F7F4F6B01841795074CF02417CD
:10369000350734F4BD01660D771DFB01118101C0B2
:1036A00010E341505109FFEF6F1A7F0AB6016F5FB7
:1036B0007F4F4E155F0524F0F60110836B01DACFC2
:1036C0004817590739F4063320F4053319F4A110CB
:1036D00001C011E3F6011083FB018B2D90E28823DA
:1036E00019F091938150FBCFFB01EB0DF11D10827E
:1036F00080E090E029960FB6F894DEBF0FBECDBFF4
:10370000DF91CF911F910F91FF90EF90DF90CF90BD
:10371000BF90AF909F907F906F900895283008F0F1
:1037200027E03327DA01990F311D87FD916000965C
:103730006105710539F432602E5F3D9330E32A95BF
:10374000E1F708959F3F30F080387105610509F079
:103750003C5F3C5F3D93913008F08068911DDF93A2
:10376000CF931F930F93FF92EF92192F987F969507
:10377000E92F96959695E90FFF27E453FB4F99277C
:103780003327EE24FF24A701E7010590089407944E
:1037900028F4360FE71EF81E491F511D660F771FCC
:1037A000881F991F0694A1F70590079428F4E70E47
:1037B000F81E491F561FC11D770F881F991F661FCE
:1037C0000694A1F70590079428F4F80E491F561F98
:1037D000C71FD11D880F991F661F771F0694A1F779
:1037E0000590079420F4490F561FC71FD81F990F43
:1037F000661F771F881F0694A9F78491109517708C
:1038000041F0D695C79557954795F794E7941A9543
:10381000C1F7E2E7F4E06894159015913591659150
:10382000959105907FE27395E118F10A430B560BD1
:10383000C90BD009C0F7E10CF11E431F561FC91F69
:10384000D01D7EF4703311F48A95E6CFE8940150D0
:1038500030F0080F0AF40027021708F4202F2395F0
:10386000022F7A3328F079E37D932A95E9F710C087
:103870007D932A9589F606949795679537951795C0
:103880001794E118F10A430B560BC90BD00998F0B5
:1038900023957E9173957A3308F070E37C9320131F
:1038A000B8F77E9170617D9330F0839571E37D93DD
:1038B00070E32A95E1F71124EF90FF900F911F918B
:1038C000CF91DF91992787FD9095089599278827B3
:1038D0000895FC010590615070400110D8F7809563
:1038E00090958E0F9F1F0895FC01615070400190CC
:1038F0000110D8F7809590958E0F9F1F08950F9314
:103900001F93CF93DF93182F092FEB018B8181FD3C
:1039100003C08FEF9FEF20C082FF10C04E815F81F8
:103920002C813D81421753077CF4E881F9819F0186
:103930002F5F3F4F39832883108306C0E885F985C0
:10394000812F0995892B29F72E813F812F5F3F4FCA
:103950003F832E83812F902FDF91CF911F910F9165
:103960000895FA01AA27283051F1203181F1E89415
:103970006F936E7F6E5F7F4F8F4F9F4FAF4FB1E062
:103980003ED0B4E03CD0670F781F891F9A1FA11D5D
:10399000680F791F8A1F911DA11D6A0F711D811D5E
:1039A000911DA11D20D009F468943F912AE0269F23
:1039B00011243019305D3193DEF6CF010895462F82
:1039C0004770405D4193B3E00FD0C9F7F6CF462F63
:1039D0004F70405D4A3318F0495D31FD40524193CC
:1039E00002D0A9F7EACFB4E0A69597958795779589
:1039F0006795BA95C9F700976105710508959B0110
:103A0000AC010A2E06945795479537952795BA9598
:103A1000C9F7620F731F841F951FA01D0895DB0156
:103A20008F939F930BD0BF91AF91A29F800D911D5B
:103A3000A39F900DB29F900D1124089540D0A59F93
:103A4000900DB49F900DA49F800D911D1124089599
:103A50002F923F924F925F926F927F928F929F929E
:103A6000AF92BF92CF92DF92EF92FF920F931F938C
:103A7000CF93DF93CDB7DEB7CA1BDB0B0FB6F8943D
:103A8000DEBF0FBECDBF09942A88398848885F847D
:103A90006E847D848C849B84AA84B984C884DF80EE
:103AA000EE80FD800C811B81AA81B981CE0FD11DD2
:103AB0000FB6F894DEBF0FBECDBFED010895A29FF3
:103AC000B001B39FC001A39F700D811D1124911DF2
:103AD000B29F700D811D1124911D0895F894FFCFA0
:103AE00000831000000104100000018208000001A2
:0C3AF000000000000000000000000000CA
:00000001FF
