:1000000064C200007EC200007CC200007AC2000010
:1000100078C2000076C2000074C2000072C2000004
:1000200070C200006EC200000C941A0E0C94E00E18
:1000300068C2000066C2000064C2000062C2000024
:100040000C9422085EC200005CC200005AC200008C
:100050000C944D0856C2000054C2000052C2000069
:1000600050C200004EC200004CC200004AC2000054
:1000700048C2000046C2000044C2000042C2000064
:1000800040C200003EC200003CC200003AC2000074
:1000900038C2000036C2000034C2000032C2000084
:1000A00030C200002EC200002CC2000025730D0AD1
:1000B00000256320257520257520002563202573E4
:1000C0002000256320257320004572726F723A204C
:1000D000556E7265636F676E697A656420436F6DF4
:1000E0006D616E643A2025630D0A004F4B0D0A00C6
:1000F00054202D2D2D2D2D2D20205248202D2D2DFD
:100100002D2D2D2000524820257320252500542018
:10011000257325634320002573005469636B7320A6
:100120002573202F20004361706163697479202555
:10013000732070460054696D655374616D702020A2
:10014000257300502025732F313030007420257323
:1001500020004F4B0D0A004F4B0D0A004465766995
:100160006365204572726F723A20556E7265636FD7
:10017000676E697A656420436F6D6D616E643A20C5
:1001800025630D0A004F4B0D0A004F4B0D0A00442A
:100190006576696365204572726F723A20534854E0
:1001A0004333206D6F64756C6520756E7265676989
:1001B0007374657265640D0A004465766963652031
:1001C0004572726F723A20526561642074656D7079
:1001D0006572617475726520756E6578706563749B
:1001E0006564206572726F723A2025750D0A0025CC
:1001F000730D0A00257320004F4B0D0A0025730D67
:100200000A002573200025732000257320004F4B22
:100210000D0A00256C750D0A00257320002573203A
:1002200000257320002573200044657669636520EE
:100230004572726F723A2055534220427566666568
:1002400072204F766572666C6F77210D0A002A2A3C
:100250002A2A2A2A2A2A2A2A2A2A2A2A2A2A2A2AFE
:100260002A2A002A202050472032303232202F20E4
:100270003230323320202A002A202043617061630B
:1002800069747953656E736F7220202A002A2A2AB6
:100290002A2A2A2A2A2A2A2A2A2A2A2A2A2A2A2ABE
:1002A0002A0045474E40787A8FC083C032401B9E5B
:1002B00094C066665640F0A7D63F6ABCA0400000D6
:1002C00000007CEA02003803430061007000610016
:1002D0006300690074007900530065006E007300CC
:1002E0006F0072005F00500047005F003200300076
:1002F000320033002F0032003000320034000000A2
:100300003E03530031003700390039003900310015
:10031000200042006F0072006F00770069006300E8
:100320006B0069002000410072006B0061006400F6
:100330006900750073007A0020005000470000003B
:100340000403090409023E00020100C0320904004E
:100350000001020201000524001001042402060528
:1003600024060001070582030800FF0904010002BA
:100370000A000000070504021000050705830210AB
:1003800000051201100102000008EB0344200100E7
:100390000102DC014E414E494E495459494E46CD69
:1003A000CCCC3D0AD7233C17B7D13877CC2B32952C
:1003B00095E6241FB14F0A000020410000C842000A
:1003C000401C4620BCBE4CCA1B0E5AAEC59D7400D4
:1003D000407A10F35A00A0724E18090010A5D4E814
:1003E0000000E87648170000E40B54020000CA9AA7
:1003F0003B000000E1F505000080969800000040F9
:10040000420F000000A0860100000010270000003D
:1004100000E803000000006400000000000A000083
:100420000000000100000000002C76D888DC674F37
:100430000823DFC1DFAE59E1B1B796E5E3E453C667
:100440003AE651997696E8E6C28426EB898C9B625F
:10045000ED407C6FFCEFBC9C9F40F2BAA56FA5F409
:1004600090055A2AF75C936B6CF9676DC11BFCE031
:10047000E40D47FEF520E6B500D0ED902E03009484
:100480003577050080841E080000204E0A00000019
:10049000C80C333333330F986E12831141EF8D2123
:1004A00014893BE65516CFFEE6DB18D1844B381B8A
:1004B000F77C1D901DA4BBE424203284725E22814F
:1004C00000C9F124ECA1E53D270011241FBECFEFA8
:1004D000DAE0DEBFCDBF11E0A0E0B1E0E8EDF9E386
:1004E00002C005900D92AC31B107D9F723E0ACE121
:1004F000B1E001C01D92A13CB207E1F7CBD00C9452
:10050000EA1C7ECD0F931F93242F0CE111E049EDDF
:100510000E949E14F80180E090E02191203229F49D
:10052000FC01E45EFE4F108204C001968431910507
:10053000A1F78CE191E01F910F9108958F929F9206
:10054000AF92BF92CF92DF92EF92FF920F931F93E1
:1005500080919E0281FF92C00E94BA0A811186C0DA
:100560000E94610B4B015C010E943313072E000CAB
:10057000880B990B0E9466136B017C019B01AC01F7
:10058000C501B4010E94661220E030E048EC52E45C
:100590000E94F2130E9433138B019C01CB016AE08D
:1005A00070E00E945514B801681B790B069714F08F
:1005B000665F7F4F072E000C880B990B0E94661315
:1005C00020E030E048EC52E40E94CB12A7019601F3
:1005D0000E9467126093A4037093A5038093A603FF
:1005E0009093A7030E946A0B4B015C010E94331396
:1005F000072E000C880B990B0E9466136B017C017F
:100600009B01AC01C501B4010E94661220E030E0FC
:1006100048EC52E40E94F2130E9433138B019C01B8
:10062000CB016AE070E00E945514B801681B790B99
:10063000069714F0665F7F4F072E000C880B990B0E
:100640000E94661320E030E048EC52E40E94CB1296
:10065000A70196010E9467126093A8037093A903F3
:100660008093AA039093AB0380E009C080919E021F
:100670008D7F80939E0297D581E001C083E01F911A
:100680000F91FF90EF90DF90CF90BF90AF909F9031
:100690008F900895CF93DF93CDB7DEB7A7970FB6AE
:1006A000F894DEBF0FBECDBF469A47985D98289854
:1006B0005F9A5E9A3E9A279A3F9A559A209A60E8E6
:1006C0007AE186E090E064D587E2A5D590919E021C
:1006D00080FB90F990939E0280E79DD590919E02B9
:1006E00080FB91F990939E0280919E0281FD28D714
:1006F00080919E0280FF04C05FD68FE492E044D6D2
:1007000080E090E0FC01EE0FFF1FE256FD4F1282E9
:100710001182019682389105A9F780919E02877F08
:1007200080939E0280919E028F7E80939E02809194
:100730009E028B7F80939E0280E090E0A4E3B2EC67
:100740008093A4039093A503A093A603B093A7035B
:100750001092A8031092A9031092AA031092AB035F
:1007600040E850E06FEC71E085EC91E0BCD744E1EB
:1007700050E060E170E08BE792E00E945C1940E19C
:1007800050E060E070E08BE692E00E945C1984B774
:10079000877F84BF88E10FB6F89480936000109241
:1007A00060000FBE90E080E80FB6F894809361007F
:1007B000909361000FBE0E94FD0D6DE572E080E038
:1007C00091E00E94A11182E484BD15BC87E287BD3F
:1007D0001092800080EC809381001092850010922E
:1007E000840081E280936F0080919E0280FF18C098
:1007F00060E080E0B7D58DE892E03AD660E081E035
:10080000B1D588E792E034D660E082E0ABD583E6EC
:1008100092E02ED660E083E0A5D58EE492E028D663
:100820002FEF33ED80E3215030408040E1F700C0EE
:10083000000047985D9828989FEF29E638E191508D
:1008400020403040E1F700C0000078940DE512E050
:100850006E018BE0C80ED11C1E019CE1290E311CDB
:100860005E0125E1A20EB11C4E0133E2830E911C04
:100870008FE4E82E82E0F82E85EC91E0C1D781115B
:1008800020C080E091E00E94641197FD2DC0782E79
:10089000682F85EC91E03BD78AE0781225C08091E3
:1008A0004401882339F085EC91E029D71092440166
:1008B00047981AC080919E02886080939E02479A52
:1008C00013C085EC91E01BD781E080934401479AE7
:1008D00029E232E03F932F931F930F930E94591701
:1008E0000F900F900F900F9080919E0283FFA3C3F3
:1008F00080919E02877F80939E0285EC91E094D741
:10090000029709F0F1C14AE065E471E085EC91E0FD
:1009100042D7809145018C3409F4D9C108F06EC0EA
:10092000843409F477C0893409F487C0813409F02C
:10093000D6C160917B0270917C0280917D02909182
:100940007E0244E0DFDD9F938F9385E292E09F93E8
:100950008F931F930F930E94591760917F0270919C
:100960008002809181029091820244E0CBDD9F93CE
:100970008F9381E292E09F938F931F930F930E9436
:100980005917609183027091840280918502909141
:10099000860244E0B7DD9F938F938DE192E09F93B1
:1009A0008F931F930F930E94591760918702709144
:1009B00088028091890290918A0244E0A3DD9F938E
:1009C0008F9389E192E09F938F931F930F930E94DF
:1009D000591780918E028F9380918D028F93809111
:1009E0008C028F9380918B028F9383E192E09F938F
:1009F0008F931F930F930E9459176FC08E3409F481
:100A00006AC108F483C0803509F46DC0823509F4E9
:100A10001FC165C144E150E062EB72E08BE792E0F8
:100A20000E942F1744E150E060E170E08BE792E014
:100A30000E946C196EE072E0E5C260916B027091E9
:100A40006C0280916D0290916E0244E05BDD9F9399
:100A50008F938AE092E09F938F931F930F930E944E
:100A6000591760916F02709170028091710290919C
:100A7000720244E047DD9F938F9386E092E09F935C
:100A80008F931F930F930E94591760917302709177
:100A90007402809175029091760244E033DD9F9359
:100AA0008F9382E092E09F938F931F930F930E9406
:100AB0005917609177027091780280917902909134
:100AC0007A0244E01FDD9F938F938DEF91E09F9317
:100AD0008F931F930F930E9459170FB6F894DEBFA0
:100AE0000FBECDBFA4C240E150E062EA72E08BE6E7
:100AF00092E00E942F1740E150E060E070E08BE64A
:100B000092E00E946C1968EF71E07CC2469816BCB6
:100B1000109285001092840081E083BD85E085BD40
:100B200087EC809381001092AE031092B003109274
:100B3000AF038091B0038823E1F380919C029091F0
:100B40009D022091B1033091B203821B930B9093CD
:100B5000AD038093AC038091AF0381508093AF03CA
:100B600080EC8093810015BC469AE8DC811133C08B
:100B70006091A4037091A5038091A6039091A703AF
:100B800041E0C0DC9F938F931F9284E58F9382ECAA
:100B900090E09F938F931F930F930E94591760913A
:100BA000A8037091A9038091AA039091AB0341E03F
:100BB000A9DC9F938F931F9288E48F938BEB90E037
:100BC0009F938F931F930F930E9459170FB6F8941A
:100BD000DEBF0FBECDBF2091AF038091AC039091DB
:100BE000AD031F922F939F938F931F9283E48F9354
:100BF00081EB90E09F938F931F930F930E9459175F
:100C00006091AC037091AD0380E090E00E946413AA
:100C10002CEA35EC47EA5BE30E94CB122B013C0146
:100C20006091AF0370E080E090E00E9466139B014A
:100C3000AC01C301B2010E94CB1243E063DC9F937D
:100C40008F938CEA90E09F938F931F930F9343CFE2
:100C500075DC811127C06091A4037091A503809178
:100C6000A6039091A70341E04DDC9F938F9384EFFF
:100C700091E09F938F931F930F930E945917609158
:100C8000A8037091A9038091AA039091AB0341E05E
:100C900039DC9F938F938FEE91E09F938F931F93F7
:100CA0000F9319CF813031F483D21F928F9389EB48
:100CB00091E0B1C18FE891E09F938F931F930F93C1
:100CC0000E9459170F900F900F900F90B0C1469847
:100CD0006AE871E097C1469A65E871E093C11F9296
:100CE0008F938CE591E097C140E265E471E085EC7B
:100CF00091E051D580914501833509F459C087357C
:100D000009F4BDC08F3409F082C140E265E471E0AE
:100D100085EC91E040D560E070E00E94BE146093E5
:100D20006B0270936C0280936D0290936E0240E2AE
:100D300065E471E085EC91E02ED560E070E00E9402
:100D4000BE1460936F02709370028093710290934F
:100D5000720240E265E471E085EC91E01CD560E050
:100D600070E00E94BE1460937302709374028093CB
:100D700075029093760240E265E471E085EC91E0C3
:100D80000AD560E070E00E94BE1460937702709311
:100D900078028093790290937A0240E150E060E01B
:100DA00070E08BE692E00E946C1962E571E02AC166
:100DB00040E265E471E085EC91E0EDD460E070E044
:100DC0000E94BE1460937B0270937C0280937D022C
:100DD00090937E0240E265E471E085EC91E0DBD423
:100DE00060E070E00E94BE1460937F027093800206
:100DF000809381029093820240E265E471E085EC89
:100E000091E0C9D460E070E00E94BE146093830258
:100E100070938402809385029093860240E265E499
:100E200071E085EC91E0B7D460E070E00E94BE1400
:100E300060938702709388028093890290938A025C
:100E40004AE065E471E085EC91E0A5D44AE050E029
:100E500060E070E00E94161660938B0270938C0223
:100E600080938D0290938E0244E150E060E170E047
:100E70008BE792E00E946C1967E571E0C3C0809136
:100E80009E0280FFBDC040E2B60185EC91E083D4B4
:100E900040E2BE016F5F7F4F85EC91E07CD440E281
:100EA000B10185EC91E077D440E2B50185EC91E0A9
:100EB00072D44AE0B40185EC91E06DD449D28BA1A3
:100EC0008823D1F0DF92CF928CE491E09F938F93AF
:100ED000FF92EF920E9459179F928F9283E491E0C4
:100EE0009F938F93FF92EF920E9459170FB6F89439
:100EF000DEBF0FBECDBF10C0DF92CF9285E391E081
:100F00009F938F93FF92EF920E9459170F900F902B
:100F10000F900F900F900F9060E081E023D221E0BE
:100F200030E02C0F3D1F3F932F9386E291E09F937B
:100F30008F93FF92EF920E94591760E082E012D2E5
:100F40003F922F928AE191E09F938F93FF92EF92CD
:100F50000E945917BF92AF9287E191E09F938F93C0
:100F6000FF92EF920E94591760E083E0FBD18091DD
:100F70009E020FB6F894DEBF0FBECDBF81FF34C016
:100F80006091A4037091A5038091A6039091A7039B
:100F900041E0B8DA1F922FED2F939F938F938EE04D
:100FA00091E09F938F93FF92EF920E9459176AE00E
:100FB00083E0D8D16091A8037091A9038091AA031E
:100FC0009091AB0341E09EDA9F938F9385E091E08F
:100FD0009F938F93FF92EF920E9459170FB6F89448
:100FE000DEBF0FBECDBF0CC020EF30E03F932F938C
:100FF000FF92EF920E9459170F900F900F900F9051
:101000006BEE70E080E091E00E94C21010C01F9271
:101010008F9389EC90E09F938F931F930F930E947F
:1010200059170F900F900F900F900F900F9085EC25
:1010300091E065D3479880E091E00E944F110E94B3
:1010400084101ACC1F920F920FB60F9211248F9317
:101050009F93809186009091870090939D0280934A
:101060009C028091AF03811108C080919C029091F5
:101070009D029093B2038093B10380919C02909162
:101080009D028091AF038F5F8093AF039F918F91FB
:101090000F900FBE0F901F9018951F920F920FB6D2
:1010A0000F9211248F9381E08093AE038093B0035D
:1010B0008F910F900FBE0F901F9018955D9A089515
:1010C00028985D98EEE9F2E080818B7F8083089517
:1010D00080E091E00E949D10882311F0289A0895E5
:1010E0002898089580E091E00C94B611FC01908955
:1010F00080919E0290FB82F980939E0280919E02D5
:1011000082FF02C0289A089528980895292F33272E
:101110002230310559F02330310569F02130310595
:10112000E9F482E190E022E833E01CC08EE390E035
:1011300024E433E017C099278130910549F028F065
:10114000029761F4E6ECF2E005C0E0E4F3E002C0EF
:10115000E0E0F3E0849190E09F0104C080E090E043
:1011600020E030E0FA013183208308959B01AC0137
:1011700060E074E284EF90E00E9468142F5031091F
:10118000C901969587952170280F2093B80008957E
:10119000EFE8F2E0108211822AB123602AB92BB164
:1011A00023602BB9E3CFEFE8F2E08081108208954D
:1011B00080919002089580918F02811107C084EA86
:1011C0008093BC008091BC0087FFFCCF089584E928
:1011D0008093BC00089590918F0291111BC0809361
:1011E000BB0084E88093BC008091BC0087FFFCCFEB
:1011F0008091B900887F883169F08091B900887F3B
:10120000803441F081E080938F028091B900887F23
:10121000809390020895CF93C82FCDDF8C2F880F35
:10122000DADF84E98093BC00EFE8F2E0908110827D
:1012300081E08927CF91089590918F02911109C083
:101240008093BB0084E88093BC008091BC0087FF42
:10125000FCCF089590918F02911124C090E4899F52
:101260009001112424682093BC009091BC0097FF4A
:10127000FCCF2091B900287F30E0811103C088E5C0
:1012800090E002C080E590E08217930741F081E092
:1012900080938F028091B900887F80939002809123
:1012A000BB00089580E00895EF92FF920F931F9383
:1012B000CF93DF9300D000D0CDB7DEB790919102ED
:1012C000692B382F32953F7030FF02C020E101C0FA
:1012D00020E031FD206232FD2064387009F0206882
:1012E000262B80FF02C090E101C090E081FD90625A
:1012F00082FD906483FD9068962B822F84608983A1
:101300002A83892F84608B839C8355DF8EE463DF7F
:101310008E010F5F1F4F7E0185E0E80EF11CF80182
:1013200081918F0189DF0E151F05C9F750DF8FED01
:1013300091E00197F1F700C000000F900F900F901F
:101340000F90DF91CF911F910F91FF90EF90089533
:1013500060E081E0A9DF8FE89CE40197F1F700C02D
:1013600000000895813031F0823031F0833031F067
:1013700090E005C098E203C094E101C094E580E8E4
:10138000860F60E0890F90CFFC018EE0DF011D9297
:101390008A95E9F782E0838384E39AE091878087E6
:1013A000089588E08093910206DF8EE414DF809137
:1013B0009102806F41DF0BCFEF92FF920F931F934B
:1013C000CF93DF9300D000D0CDB7DEB7EADFF3DEF6
:1013D0008EE401DF80919102806F2EDFF8DE289885
:1013E0008FE59AEE0197F1F700C0000080E3898352
:1013F0008A838B8380E28C83DEDE8EE4ECDEFE016A
:1014000031967F0110E0F70101917F0180919102F7
:101410008460802B11DF80919102802B0DDF1111F0
:1014200006C08FE89CE40197F1F700C000001F5F41
:10143000143049F7CCDE60E088E236DF60E088E017
:1014400033DF60E086E030DF60E08CE02DDF0F907E
:101450000F900F900F90DF91CF911F910F91FF9000
:10146000EF9076CF61E020CFFDDF80E090E008953F
:10147000CF93DF93EC01FE018491882319F021962C
:10148000F1DFF9CFDF91CF910895CF93DF9300D0B3
:10149000CDB7DEB789836A83FE0131969E012D5F49
:1014A0003F4F9FEF51E38191982788E097FF03C05A
:1014B000990F952701C0990F8150C1F7E217F307E3
:1014C00091F781E0941380E00F900F90DF91CF911E
:1014D0000895CF93DF93EC016EDE80EE7CDE8D2FDE
:1014E000ABDE8C2FA9DEDF91CF9171CE1F93CF930E
:1014F000DF9388EC9FEEEDDF5EDE81EE6CDE81E057
:10150000A9DED82F81E0A6DEC82F81E0A3DE182F48
:101510005EDE412F6C2F8D2FB8DF882351F08C2F8A
:1015200090E09D2B8F7398708730984021F480E075
:1015300003C081E001C083E0DF91CF911F91089546
:10154000CF9387E195E3C5DF8FEB93E00197F1F748
:1015500000C00000CBDFC82F88E990EBBADF8FEB2B
:1015600093E00197F1F700C00000109293028C2FD6
:10157000CF910895EF92FF920F931F93CF93DF9334
:1015800087E195E3A6DF8FEB93E00197F1F700C0C9
:10159000000080919302882341F08CE990E699DF66
:1015A0008FE99FE00197F1F707C086E698E791DFA2
:1015B0008FE59AEE0197F1F700C00000FCDD81EEA7
:1015C0000ADE81E047DE082F81E044DED82F81E08B
:1015D00041DEE82E81E03EDE182F81E03BDEC82FA1
:1015E00081E038DEF82EF3DD88E990EB72DF8FEBD7
:1015F00093E00197F1F700C000004E2D6D2F802F72
:1016000044DF882309F441C04F2D6C2F812F3DDF2B
:101610008823D9F16D2F70E0702B80E090E00E945C
:10162000641320E030E04FE253E40E94F21320E024
:101630003FEF4FE757E4AFD720E030E044E352E418
:1016400045D760939402709395028093960290938D
:1016500097026C2F70E0712B80E090E00E94641381
:1016600020E03FEF4FE757E496D720E030E048EC2A
:1016700052E40E94F213609398027093990280934F
:101680009A0290939B0280E015C080E090E0A4E372
:10169000B2EC8093940290939502A0939602B0933B
:1016A0009702109298021092990210929A02109248
:1016B0009B0282E0DF91CF911F910F91FF90EF90FD
:1016C0000895609194027091950280919602909194
:1016D00097020895609198027091990280919A0200
:1016E00090919B020895FC0171836083558344832C
:1016F0001782168211861086138212820895FC01C9
:101700001782168211861086138212820895FC01B8
:10171000868197810196248135818217930711F480
:1017200080E090E0208531858217930771F0A081D9
:10173000B181A80FB91F6C939783868382819381AF
:1017400001969383828381E0089580E00895FC01EF
:10175000808591852681378128173907D1F0019638
:1017600091878087248135818217930711F4118630
:101770001086A081B18180859185A80FB91F8C91B9
:10178000DB018C938281938101979383828381E033
:10179000089580E008959F92AF92BF92CF92DF921A
:1017A000EF92FF920F931F93CF93DF931F92CDB7CA
:1017B000DEB75C018B01942E6B017601E01AF10A11
:1017C000BE016F5F7F4FC501C2DF882339F0898179
:1017D000891521F0F60181936F01EFCFF801EE0D2D
:1017E000FF1D1082C8010F90DF91CF911F910F91C3
:1017F000FF90EF90DF90CF90BF90AF909F900895B3
:10180000FC01268137812F5F3F4F84819581281706
:10181000390711F420E030E081E04085518542171E
:10182000530709F080E00895FC01828193810895B7
:10183000CF92DF92EF92FF920F931F93CF93DF939C
:10184000EC018B017A0168D1811134C0E114F104FB
:1018500039F0F70180819181081B190BC80FD91F3E
:10186000C12CD12C0115110521F18091E80085FDD5
:1018700015C08091E8008E778093E800E114F104B0
:1018800049F0F70180819181C80ED91ED182C082B2
:1018900085E010C041D1882329F30CC0FE0184915A
:1018A0008093F100219601501109FFEFCF1ADF0A52
:1018B000D9CF80E0DF91CF911F910F91FF90EF90F2
:1018C000DF90CF9008952091BD033091BE0326177D
:1018D000370748F06115710539F42091E8002E773B
:1018E0002093E80001C0B901FC0120E061157105F9
:1018F00071F18EB38823E9F18530E9F18091E80038
:1019000083FD3BC08091E80082FD2DC08091E800FE
:1019100080FFECCF2091F3008091F20090E0922BB9
:101920006115710551F08830910538F421912093AB
:10193000F100615071090196F3CF21E0089709F099
:1019400020E08091E8008E778093E800CFCF2111CE
:10195000D0CF09C08EB3882361F0853061F08091CB
:10196000E80083FD0AC08091E80082FFF3CF80E0A9
:10197000089582E0089583E0089581E0089520911C
:10198000BD033091BE032617370748F06115710576
:1019900039F42091E8002E772093E80001C0B901C6
:1019A000FC0120E06115710589F18EB3882309F4EB
:1019B0003FC0853009F43EC08091E80083FD3CC003
:1019C0008091E80082FD2EC08091E80080FFEACF80
:1019D0002091F3008091F20090E0922B6115710547
:1019E00059F08830910540F424912093F10031960C
:1019F000615071090196F2CF21E0089709F020E0CB
:101A00008091E8008E778093E800CCCF2111CDCF74
:101A100009C08EB3882361F0853061F08091E800C1
:101A200083FD0AC08091E80082FFF3CF80E0089533
:101A300082E0089583E0089581E008958F70809397
:101A4000E900EBEEF0E0808181608083EDEEF0E074
:101A500010826093EC0040838091EE00881F8827FD
:101A6000881F08950F931F93CF93DF93062FEC01E8
:101A700010E0101771F16881611103C01F5F259696
:101A8000F8CF2C81A981BA819B81862F8F708730F6
:101A900010F080E01FC0223010F442E001C046E0A8
:101AA000E8E0F0E020E0EA17FB0720F42F5FEE0FFC
:101AB000FF1FF9CF2295207F422B50E4959F900184
:101AC0001124661F6627661F622BB8DF8111D6CFEF
:101AD000E0CF81E0DF91CF911F910F910895809128
:101AE000B70387FF0FC08091E80082FD04C08EB36A
:101AF0008111F9CF10C08091E8008B770AC08EB3B6
:101B0000882349F08091E80080FFF9CF8091E800B8
:101B10008E778093E80008952091E4003091E500ED
:101B200095E64091EC00842F817040FF22C08091A7
:101B3000E80080FD1CC08EB3882399F0853099F0B1
:101B40008091EB0085FD11C04091E4005091E500CB
:101B50002417350731F3915011F09A01E2CF84E058
:101B6000089582E0089583E0089581E0089580E07B
:101B700008954091E80042FFDECF08950F931F9330
:101B8000CF93DF934AD051D0C8EDD0E088818F77D2
:101B9000888388818068888388818F7D888319BC49
:101BA0001EBA1092B3031092B5031092B40300EE64
:101BB00010E0F80180818B7F808388818160888339
:101BC00042E060E080E03ADFE1EEF0E080818E7F8D
:101BD0008083E2EEF0E08081816080838081886094
:101BE0008083F80180818E7F8083888180618883F3
:101BF000DF91CF911F910F910895E8EDF0E0808182
:101C00008F7E8083E7EDF0E080818160808384E0D7
:101C100082BF81E08093B603B1CFE8EDF0E0808130
:101C20008E7F80831092E20008951092DA00109265
:101C3000E10008951F920F920FB60F9211242F9377
:101C40003F934F935F936F937F938F939F93AF9344
:101C5000BF93EF93FF938091E10082FF0AC08091D0
:101C6000E20082FF06C08091E1008B7F8093E1005B
:101C70004AD28091DA0080FF1BC08091D80080FF9B
:101C800017C08091DA008E7F8093DA008091D900AE
:101C900080FF0BC080E189BD82E189BD09B400FEEF
:101CA000FDCF81E08EBB0ADA03C019BC1EBA08DA88
:101CB0008091E10080FF17C08091E20080FF13C097
:101CC0008091E2008E7F8093E2008091E20080614B
:101CD0008093E2008091D80080628093D80019BC84
:101CE00085E08EBB10D28091E10084FF2EC08091F0
:101CF000E20084FF2AC080E189BD82E189BD09B488
:101D000000FEFDCF8091D8008F7D8093D800809118
:101D1000E1008F7E8093E1008091E2008F7E8093CE
:101D2000E2008091E20081608093E2008091B30341
:101D3000882311F084E007C08091E30087FD02C092
:101D400081E001C083E08EBBDED18091E10083FFA2
:101D500026C08091E20083FF22C08091E100877F4E
:101D60008093E10082E08EBB1092B3038091E1008A
:101D70008E7F8093E1008091E2008E7F8093E2006D
:101D80008091E20080618093E20042E060E080E0C8
:101D900055DE8091F00088608093F000B4D1FF910F
:101DA000EF91BF91AF919F918F917F916F915F91D3
:101DB0004F913F912F910F900FBE0F901F9018954C
:101DC0001F920F920FB60F9211242F933F934F93B0
:101DD0005F936F937F938F939F93AF93BF93CF93B3
:101DE000DF93EF93FF93C091E900CF708091EC00F7
:101DF000D82FD17080FDD0E81092E9008091F000DA
:101E0000877F8093F00078941ED01092E900809133
:101E1000F00088608093F000CD2BCF70C093E90074
:101E2000FF91EF91DF91CF91BF91AF919F918F91F2
:101E30007F916F915F914F913F912F910F900FBEC6
:101E40000F901F9018951F93CF93DF93CDB7DEB7F8
:101E5000AA970FB6F894DEBF0FBECDBFE7EBF3E055
:101E60008091F100819323E0EF3BF207C9F73AD963
:101E70008091E80083FF2FC18091B7039091B80350
:101E8000953009F483C030F49130A9F168F09330B3
:101E900091F121C1983009F4EEC0993009F4FAC0EB
:101EA000963009F018C193C0803821F0823809F0CB
:101EB00012C108C08091B4039091B503992389F0B1
:101EC00082600FC08091BB038F70873008F003C120
:101ED0008093E9008091EB0085FB882780F91092C0
:101EE000E9009091E800977F9093E8008093F100DB
:101EF0001092F100CBC0282F2D7F09F0ECC0882371
:101F000019F0823061F0E7C08091B903813009F0A7
:101F1000E2C0933009F080E08093B5032EC0809139
:101F2000B90381112AC08091BB038F702FEF280F56
:101F3000263008F0D0C08093E9002091EB0020FF0C
:101F40001CC0933021F48091EB00806214C090910A
:101F5000EB0090619093EB0021E030E0A90102C01A
:101F6000440F551F8A95E2F74093EA001092EA0069
:101F70008091EB0088608093EB001092E9008091E3
:101F8000E800877F8093E800AADDA5C08111A3C087
:101F90001091B9031F778091E3008078812B8093A3
:101FA000E3008091E800877F8093E80098DD8091CE
:101FB000E80080FFFCCF8091E30080688093E3001D
:101FC000111102C082E001C083E08EBB84C0805842
:101FD000823008F080C08091B9039091BA038C3DA3
:101FE00053E0950771F583E08A838AE289834FB7CE
:101FF000F894DE01139620E03EE051E2E32FF0E09A
:1020000050935700E49120FF03C0E295EF703F5FCB
:10201000EF708E2F90E0EA3010F0C79601C0C096A6
:102020008D939D932F5F243149F74FBF8091E80036
:10203000877F8093E8006AE270E0CE01019643DC7E
:1020400014C06091BB037091BC03AE014F5F5F4F42
:102050005DD8BC01892B09F43EC09091E800977FC0
:102060009093E80089819A818ADC8091E8008B77DF
:102070008093E80030C0803871F58091E800877F58
:102080008093E8008091B3038093F1008091E80091
:102090008E7778CF81111FC08091B9039091BA03D8
:1020A00099270297C4F48091E800877F8093E80025
:1020B0008091B9038093B30312DD8091B303811142
:1020C00006C08091E30087FD02C081E001C084E08A
:1020D0008EBB0E9468088091E80083FF0AC080914F
:1020E000E800877F8093E8008091EB008062809316
:1020F000EB00AA960FB6F894DEBF0FBECDBFDF91FE
:10210000CF911F9108950895CF938EB3882399F0AE
:10211000C091E900CF709091EC00892F817090FD03
:1021200080E8C82B1092E9008091E80083FD8BDEE7
:10213000CF70C093E900CF910895CF93DF93EC0166
:10214000FC0170968BE0DF011D928A95E9F782E031
:102150008C83898783E08E8761E0CE01019682DCE3
:10216000882361F061E0CE0106967CDC882331F0A3
:1021700061E0CE010B96DF91CF9174CC80E0DF91CE
:10218000CF9108950F931F93CF93DF932EB32430F5
:10219000C9F4FC010489158926893789012B022B92
:1021A000032B81F0EB0181818F708093E900CB01DB
:1021B0005FD640E050E0BC01CE01DF91CF911F918E
:1021C0000F9136CB82E0DF91CF911F910F9108954F
:1021D0000F931F93CF932EB32430F9F4FC0104899D
:1021E000158926893789012B022B032BB1F0C62FC5
:1021F00081818F708093E9008091E80085FF04C0A1
:10220000C093F10080E00AC08091E8008E7780934F
:10221000E80082DC8823A1F301C082E0CF911F9106
:102220000F910895CF93C82FFB01682F8485958562
:10223000CFDF811103C08C2F90E002C08FEF9FEFA2
:10224000CF9108952EB3243041F5FC01448955897E
:1022500066897789452B462B472BF9F081818F7052
:102260008093E9002091F3008091F20090E0922B9E
:10227000892B89F09091E8008091E8008E77809317
:10228000E80095FD08C048DC811108C08091E80095
:102290008E778093E80080E0089582E008952EB361
:1022A000243089F4FC014489558966897789452B56
:1022B000462B472B41F021812F702093E90020917C
:1022C000E80020FDBFCF08952EB3243019F08FEF22
:1022D0009FEF0895FC014489558966897789452BCC
:1022E000462B472BA1F386818F708093E900809164
:1022F000E80082FFECCF2091F3008091F20090E0A3
:10230000922B892B21F02091F10030E002C02FEFB9
:102310003FEF4091F3008091F20090E0942B892BE5
:1023200029F48091E8008B778093E800C901089533
:10233000FC0184859585C8DF97FF02C08EEF9FEF73
:102340000895FB012EE0DB011D922A95E9F723E0B9
:10235000238322E131E13187208728E931E1338786
:10236000228795878487089508950895CF93DF93F2
:10237000EC018091E80083FFA6C0888190E0209165
:10238000BB033091BC032817390709F09CC080912A
:10239000B803813261F020F4803209F43EC093C06A
:1023A000823209F46BC0833209F47DC08CC0809105
:1023B000B703813A09F087C08091E800877F809356
:1023C000E8008091E80080FFFCCF8C899D89AE8970
:1023D000BF898093F100492F5A2F6B2F77274093A5
:1023E000F100AD01662777274093F1008B2F9927E5
:1023F000AA27BB278093F100888D8093F100898DF7
:102400008093F1008A8D8093F1008091E8008E77AF
:102410008093E800DF91CF9162CB8091B703813246
:1024200009F051C08091E800877F8093E800809197
:10243000E80082FD04C08EB38111F9CF44C0309111
:10244000F1002091F1009091F1008091F1003C8B1E
:102450002D8B9E8B8F8B8091F100888F8091F10066
:10246000898F8091F1008A8F8091E8008B7780932B
:10247000E80035DBCE01DF91CF9176CF8091B703B5
:10248000813209F58091E800877F8093E80027DB9F
:102490008091B9039091BA03998B888BCE01DF911B
:1024A000CF910C9476088091B703813261F48091CA
:1024B000E800877F8093E80012DB6091B903CE01CA
:1024C000DF91CF9152CFDF91CF9108955058BB2724
:1024D000AA270ED04DC13ED130F043D120F031F4C7
:1024E0009F3F11F41EF433C10EF4E095E7FB29C1C0
:1024F000E92F4FD180F3BA17620773078407950756
:1025000018F071F49EF567C10EF4E0950B2EBA2F0A
:10251000A02D0B01B90190010C01CA01A0011124E9
:10252000FF27591B99F0593F50F4503E68F11A1695
:10253000F040A22F232F342F4427585FF3CF469526
:1025400037952795A795F0405395C9F77EF41F1648
:10255000BA0B620B730B840BBAF09150A1F0FF0F12
:10256000BB1F661F771F881FC2F70EC0BA0F621FFE
:10257000731F841F48F4879577956795B795F795EE
:102580009E3F08F0B3CF9395880F08F09927EE0F80
:102590009795879508950CD0EBC0E3D040F0DAD042
:1025A00030F021F45F3F19F0CCC0511115C1CFC0FC
:1025B000F0D098F39923C9F35523B1F3951B550B2C
:1025C000BB27AA2762177307840738F09F5F5F4F06
:1025D000220F331F441FAA1FA9F333D00E2E3AF047
:1025E000E0E830D091505040E695001CCAF729D061
:1025F000FE2F27D0660F771F881FBB1F26173707B0
:102600004807AB07B0E809F0BB0B802DBF01FF27DF
:1026100093585F4F2AF09E3F510568F092C0DCC08E
:102620005F3FECF3983EDCF3869577956795B79519
:10263000F7959F5FC9F7880F911D9695879597F934
:102640000895E1E0660F771F881FBB1F62177307AD
:102650008407BA0720F0621B730B840BBA0BEE1FC2
:1026600088F7E095089504D06894B111B5C0089535
:1026700098D088F09F5790F0B92F9927B751A0F0C4
:10268000D1F0660F771F881F991F1AF0BA95C9F706
:1026900012C0B13081F09FD0B1E008959CC0672F87
:1026A000782F8827B85F39F0B93FCCF386957795B6
:1026B0006795B395D9F73EF490958095709561959F
:1026C0007F4F8F4F9F4F0895E89409C097FB3EF4CA
:1026D00090958095709561957F4F8F4F9F4F99236F
:1026E000A9F0F92F96E9BB279395F69587957795ED
:1026F0006795B795F111F8CFFAF4BB0F11F460FFAD
:102700001BC06F5F7F4F8F4F9F4F16C0882311F004
:1027100096E911C0772321F09EE8872F762F05C018
:10272000662371F096E8862F70E060E02AF09A95B3
:10273000660F771F881FDAF7880F9695879597F9A8
:10274000089597F99F6780E870E060E008959FEF33
:1027500080EC089500240A94161617061806090638
:10276000089500240A941216130614060506089507
:10277000092E0394000C11F4882352F0BB0F40F48F
:10278000BF2B11F460FF04C06F5F7F4F8F4F9F4FCF
:10279000089557FD9058440F551F59F05F3F71F051
:1027A0004795880F97FB991F61F09F3F79F08795B8
:1027B0000895121613061406551FF2CF4695F1DF41
:1027C00008C0161617061806991FF1CF86957105D1
:1027D000610508940895E894BB2766277727CB0105
:1027E00097F908950BD0C4CFB5DF28F0BADF18F001
:1027F000952309F0A6CFABCF1124EECFCADFA0F30B
:10280000959FD1F3950F50E0551F629FF001729F85
:10281000BB27F00DB11D639FAA27F00DB11DAA1FA4
:10282000649F6627B00DA11D661F829F2227B00DF1
:10283000A11D621F739FB00DA11D621F839FA00D7C
:10284000611D221F749F3327A00D611D231F849FCC
:10285000600D211D822F762F6A2F11249F57504023
:102860008AF0E1F088234AF0EE0FFF1FBB1F661FBE
:10287000771F881F91505040A9F79E3F510570F077
:1028800060CFAACF5F3FECF3983EDCF38695779557
:102890006795B795F795E7959F5FC1F7FE2B880F72
:1028A000911D9695879597F9089597FB072E16F435
:1028B000009406D077FD08D02DD007FC05D03EF45B
:1028C000909581959F4F0895709561957F4F0895DC
:1028D000A1E21A2EAA1BBB1BFD010DC0AA1FBB1F24
:1028E000EE1FFF1FA217B307E407F50720F0A21B96
:1028F000B30BE40BF50B661F771F881F991F1A9403
:1029000069F760957095809590959B01AC01BD012C
:10291000CF010895AA1BBB1B51E107C0AA1FBB1F13
:10292000A617B70710F0A61BB70B881F991F5A955B
:10293000A9F780959095BC01CD010895EF920F9372
:102940001F93CF93DF93E80147FF02C034E101C03A
:1029500034E0E42FFF27E7FDF095F7FF03C0F19582
:10296000E195F109E32E022F2E2FAE01D6D4CE0130
:10297000DF91CF911F910F91EF900895A0E0B0E00B
:10298000E3ECF4E1E7C78B016115710521F0DB0190
:102990008C9311969C93EC015E01BFEFAB1ABB0ABE
:1029A0007501C8808C2D90E052D2892B11F0E50181
:1029B000F3CFEDE2CE1208C07E01F2E0EF0EF11C83
:1029C000C980DD24D39409C02BE2C21205C07E0168
:1029D00042E0E40EF11CC980D12CE701219743E0CD
:1029E00050E06CE973E0CE014CD2892BB9F4239608
:1029F00045E050E067E973E0CE0143D2892B09F44A
:102A000025960115110519F0D801CD93DC93D1104D
:102A100000C160E070E080E89FE704C143E050E05F
:102A200064E973E0CE012DD2892B59F4011511050B
:102A300009F4F4C0B2E0EB0EF11CF801F182E0827F
:102A4000EDC0F70160E070E0CB01C0E0D0E07F01B5
:102A5000A0EDAA2EAC0C29E02A1528F14D2D4260DC
:102A6000B42E2D2D2870D2FE04C0211124C0219631
:102A700022C021112197A5E0B0E09B01AC015AD7FB
:102A8000660F771F881F991F6A0D711D811D911D8B
:102A90006839A9E97A078A07A9E19A0760F0BD2D8C
:102AA000B660BB2E08C02EEFA2120AC0D3FC50C0E5
:102AB0004D2D4860B42E3196D701CC90DB2CC7CF7A
:102AC0002C2D2F7D253409F043C0A081AD3241F477
:102AD000BD2DB061DB2E7F0122E0E20EF11C0CC0A7
:102AE0007F01AB3231F04FEFE41AF40A21E030E01D
:102AF00006C0A2E0EA0EF11CA18122E030E0A05362
:102B0000AA3018F0E21AF30A23C0F70120E030E0FF
:102B10002038BCE03B075CF4A901440F551F440F6B
:102B2000551F240F351F220F331F2A0F311DAF01F0
:102B30004F5F5F4F7A01A081A053AA3010F4FA01D1
:102B4000E7CFD4FE03C0319521953109C20FD31FC1
:102B5000D1FE09C00115110531F0E1E0EE1AF108CE
:102B6000D801ED92FC92B0DD2D2D2370233019F0A9
:102B70004B015C0106C04B015C01B7FAB094B7F899
:102B8000B09420E030E0A901C501B401AAD18823A6
:102B900009F43CC0D7FF06C0D195C195D10903EB1C
:102BA00013E002C00BEC13E06801B8E1CB1AD108C6
:102BB00090E2E92EF12CCE15DF056CF0F80125919D
:102BC000359145915491C501B4010CDE4B015C0176
:102BD000CE19DF09F0CF04501109F594E7940C15D4
:102BE0001D0549F78A2D880F8B2D881F8F3F41F0D7
:102BF00020E030E0A901C501B40173D1811106C004
:102C000082E290E09093C0038093BF03C501B401BA
:102C100009C060E070E080E89FEF04C060E070E011
:102C200080EC9FE7CDB7DEB7ECE0B0C62F923F92C5
:102C30005F926F927F928F929F92AF92BF92CF924C
:102C4000DF92EF92FF920F931F93CF93DF938B014D
:102C5000EA016115710521F0DB018C9311969C93BB
:102C6000209739F09E01225031092332310508F0B6
:102C7000D5C07C016701BFEFCB1ADB0A5601F70113
:102C80006080862D90E0E3D0892B11F07601F2CFA1
:102C9000FDE26F120AC0570182E0A80EB11CD701F5
:102CA00011966C90772473940BC0BBE26B1207C033
:102CB0005701E2E0AE0EB11CD70111966C90712C59
:102CC000CE018F7E892B89F4B0E36B1236C0F501FB
:102CD00080818F7D8835D1F46180F2E0AF0EB11C28
:102CE000872D8260782EC0E1D0E0CA30D10549F14D
:102CF000C031D10521F0C830D10599F409C0CC24E8
:102D0000CA94DC2CEC2CAFE0FA2E21C0209769F796
:102D1000C8E0D0E0CC24CA94DC2CEC2CFFE1FF2EE0
:102D200016C06FEF7FEFCB019E01442737FD409522
:102D3000542FCEDD69017A010AC02097B1F6CAE0AE
:102D4000D0E0E9E9CE2EDC2CEC2CE9E1FE2EF501F9
:102D500060E020E030E0A9014E01AA2497FCA09495
:102D6000BA2C1F0170ED572E560CA9E0A51570F472
:102D70008FEB860D8A3118F499EC592E06C08FE935
:102D8000860D8A3140F589EA582E560C852D90E043
:102D90008C179D0704F56F3FD1F0C216D306E406E9
:102DA000F50690F0C501B401B6D59B01AC01852DA7
:102DB00090E0A0E0B0E0280F391F4A1F5B1F2817E2
:102DC00039074A075B0710F46FEF01C061E03196E5
:102DD000D1016C90C6CF0115110551F0662311F099
:102DE000319703C071FE04C03297D801ED93FC9374
:102DF00070FE07C050954095309521953F4F4F4F3D
:102E00005F4F67FF10C082E290E09093C003809311
:102E1000BF036FEF7FEF8FEF9FEF07C060E070E0C1
:102E200080E090E002C0B901CA01DF91CF911F910B
:102E30000F91FF90EF90DF90CF90BF90AF909F9059
:102E40008F907F906F905F903F902F900895911199
:102E5000B9C4803219F089508550D0F70895FB012C
:102E6000DC0102C005900D9241505040D8F7089502
:102E7000FC0105900020E9F7809590958E0F9F1F2B
:102E80000895FB01DC014150504088F08D91813460
:102E90001CF08B350CF4805E659161341CF06B3551
:102EA0000CF4605E861B611171F3990B0895881B09
:102EB000FCCFA0E0B0E0EEE5F7E154C50F81188546
:102EC000F801838188608383AE01455F5F4F698528
:102ED0007A85C8012ED0F8012381277F2383E4E07F
:102EE0005DC503D008F481E00895990F0008550FDF
:102EF000AA0BE0E8FEEF16161706E807F907C0F080
:102F000012161306E407F50798F0621B730B840B87
:102F1000950B39F40A2661F0232B242B252B21F461
:102F200008950A2609F4A140A6958FEF811D811D01
:102F30000895ACE0B0E0EEE9F7E106C57C016B0175
:102F40008A01FC0117821682838181FFB0C1CE0104
:102F500001964C01F7019381F60193FD859193FF52
:102F600081916F01882309F49EC1853239F493FD64
:102F7000859193FF81916F01853221F4B70190E033
:102F80003AD4E8CF512C312C20E02032A0F48B32FF
:102F900069F030F4803259F0833269F420612CC03A
:102FA0008D3239F0803339F4216026C022602460EC
:102FB00023C0286021C027FD27C030ED380F3A30EC
:102FC00078F426FF06C0FAE05F9E300D1124532EE0
:102FD00013C08AE0389E300D1124332E20620CC0BD
:102FE0008E3221F426FD5FC1206406C08C3611F4B8
:102FF000206802C0883641F4F60193FD859193FF65
:1030000081916F018111C1CF982F9F7D955493308D
:1030100028F40C5F1F4FFFE3F9830DC0833631F0B6
:10302000833771F0833509F057C021C0F8018081E2
:1030300089830E5F1F4F44244394512C540114C0C4
:103040003801F2E06F0E711CF801A080B18026FFFC
:1030500003C0652D70E002C06FEF7FEFC5012C87C4
:10306000BFD32C0183012C852F77222E16C0380167
:10307000F2E06F0E711CF801A080B18026FF03C042
:10308000652D70E002C06FEF7FEFC5012C879DD3E7
:103090002C012C852068222E830123FC19C0832D4E
:1030A00090E048165906A0F4B70180E290E0A3D35F
:1030B0003A94F5CFF50127FC859127FE81915F01B8
:1030C000B70190E098D331103A94F1E04F1A5108CB
:1030D0004114510479F7DEC0843611F0893631F598
:1030E000F80127FF07C060817181828193810C5FA5
:1030F0001F4F08C060817181882777FD8095982FC8
:103100000E5F1F4F2F76B22E97FF09C090958095C6
:10311000709561957F4F8F4F9F4F2068B22E2AE0A8
:1031200030E0A4019AD3A82EA81843C0853729F40B
:103130002F7EB22E2AE030E025C0F22FF97FBF2E7D
:103140008F36C1F018F4883579F0ADC0803719F0AA
:10315000883721F0A8C02F2F2061B22EB4FE0DC0F9
:103160008B2D8460B82E09C024FF0AC09F2F966063
:10317000B92E06C028E030E005C020E130E002C0F2
:1031800020E132E0F801B7FE07C0608171818281E1
:1031900093810C5F1F4F06C06081718180E090E0D9
:1031A0000E5F1F4FA40159D3A82EA818FB2DFF773F
:1031B000BF2EB6FE0BC02B2D2E7FA51450F4B4FEEF
:1031C0000AC0B2FC08C02B2D2E7E05C07A2C2B2DF8
:1031D00003C07A2C01C0752C24FF0DC0FE01EA0D3E
:1031E000F11D8081803311F4297E09C022FF06C0C1
:1031F0007394739404C0822F867809F0739423FD2E
:1032000012C020FF06C05A2C731418F4530C571820
:10321000732C731460F4B70180E290E02C87EBD23A
:1032200073942C85F6CF731410F4371801C0312C29
:1032300024FF11C0B70180E390E02C87DCD22C85FD
:1032400022FF16C021FF03C088E590E002C088E796
:1032500090E0B7010CC0822F867851F021FD02C0AA
:1032600080E201C08BE227FD8DE2B70190E0C3D27E
:10327000A51430F4B70180E390E0BDD25A94F8CFA2
:10328000AA94F401EA0DF11D8081B70190E0B3D258
:10329000A110F6CF332009F45DCEB70180E290E0B3
:1032A000AAD23A94F7CFF7018681978102C08FEFB7
:1032B0009FEF2C96E2E164C3DC01CB01FC01F9999C
:1032C000FECF06C0F2BDE1BDF89A319600B40D9272
:1032D00041505040B8F70895DC01A40FB51F41508C
:1032E000504040F0CB01840F951F2E9105D04150E6
:1032F0005040D8F70895262FF999FECF92BD81BD91
:10330000F89A019700B4021639F01FBA20BD0FB623
:10331000F894FA9AF99A0FBE08956F927F929F924D
:10332000AF92BF92CF92DF92EF92FF920F931F93D3
:10333000CF93DF93CDB7DEB729970FB6F894DEBFF2
:103340000FBECDBF6A01B22E102F0C3320F4FF2424
:10335000F394F00E02C04CE3F42E0F2D27E0AE01E3
:103360004F5F5F4F57D17981272F2970213031F07E
:10337000E1FC06C0E0FC06C060E005C06DE203C0F1
:103380006BE201C060E2AE2DA07173FF36C0662310
:1033900011F084E001C083E08B1510F4B81A01C06D
:1033A000B12CA1110BC0F6018B2D90E2882319F0EE
:1033B00091938150FBCFCB0CD11CB12C662331F003
:1033C000F601608396012F5F3F4F6901C6010396A6
:1033D000E2FE05C02EE4F601208331E404C02EE6AF
:1033E000F601208331E631832283FC012B2D30E26C
:1033F0002223F1F131932150FBCF72FF40C06623AD
:1034000011F084E001C083E08B1510F4B81A01C0FC
:10341000B12CA1110BC0F6018B2D90E2882319F07D
:1034200091938150FBCFCB0CD11CB12C662331F092
:10343000F601608396012F5F3F4F6901C601039635
:10344000E2FE07C029E4F60120832EE4218326E46E
:1034500006C029E6F60120832EE6218326E6228394
:10346000FC012B2D30E2222319F031932150FBCFA8
:10347000FC01EB0DF11D10828EEF9FEFB7C0B1E0A4
:10348000611101C0B0E04B2F50E01816190624F46A
:103490009C012F5F3F4F02C021E030E0240F351F19
:1034A000112329F0412F50E04F5F5F4F02C040E0F1
:1034B00050E0420F531F2B2D30E04217530714F4F6
:1034C000B41A01C0B12C2E2D287159F4F6012B2D00
:1034D00030E2222319F031932150FBCFCB0CD11CC9
:1034E000B12CBB2331F0F601608396012F5F3F4F73
:1034F0006901A1110BC0F6012B2D30E3222319F035
:1035000031932150FBCFCB0CD11CB12CF80E0A818A
:10351000372F3071A32E74FF03C0013309F4FA94DE
:103520001F142CF42F2D293018F028E001C021E0C1
:10353000682F392F97FF02C060E030E0462F532FED
:10354000612C712C3EE2932EBC01621B71099B0120
:10355000DC01A41BB50BE1E0F0E0EC0FFD1FAE0FAA
:10356000BF1FE12EF12CF194E194F1084F3FFFEFE2
:103570005F0731F4F6019082B6016F5F7F4F6B01F8
:10358000841795074CF02417350734F4BD01660DF8
:10359000771DFB01118101C010E341505109FFEF7C
:1035A0006F1A7F0AB6016F5F7F4F4E155F0524F0DB
:1035B000F60110836B01DACF4817590739F4063347
:1035C00020F4053319F4A11001C011E3F6011083B2
:1035D000FB018B2D90E2882319F091938150FBCF52
:1035E000FB01EB0DF11D108280E090E029960FB6F3
:1035F000F894DEBF0FBECDBFDF91CF911F910F9129
:10360000FF90EF90DF90CF90BF90AF909F907F9012
:103610006F900895283008F027E03327DA01990FDA
:10362000311D87FD916000966105710539F43260A6
:103630002E5F3D9330E32A95E1F708959F3F30F0E8
:1036400080387105610509F03C5F3C5F3D93913026
:1036500008F08068911DDF93CF931F930F93FF9223
:10366000EF92192F987F9695E92F96959695E90FE9
:10367000FF27E75DFB4F99273327EE24FF24A7019F
:10368000E70105900894079428F4360FE71EF81E0A
:10369000491F511D660F771F881F991F0694A1F7B8
:1036A0000590079428F4E70EF81E491F561FC11D08
:1036B000770F881F991F661F0694A1F7059007943E
:1036C00028F4F80E491F561FC71FD11D880F991FD8
:1036D000661F771F0694A1F70590079420F4490F01
:1036E000561FC71FD81F990F661F771F881F069484
:1036F000A9F784911095177041F0D695C795579505
:103700004795F794E7941A95C1F7EFECF3E06894C6
:103710001590159135916591959105907FE273957E
:10372000E118F10A430B560BC90BD009C0F7E10CA5
:10373000F11E431F561FC91FD01D7EF4703311F4B4
:103740008A95E6CFE894015030F0080F0AF400277C
:10375000021708F4202F2395022F7A3328F079E3FB
:103760007D932A95E9F710C07D932A9589F60694F2
:1037700097956795379517951794E118F10A430BBC
:10378000560BC90BD00998F023957E9173957A3327
:1037900008F070E37C932013B8F77E9170617D93FD
:1037A00030F0839571E37D9370E32A95E1F711245E
:1037B000EF90FF900F911F91CF91DF91992787FD97
:1037C00090950895992788270895FC0105906150E8
:1037D00070400110D8F7809590958E0F9F1F089527
:1037E000FC016150704001900110D8F780959095D0
:1037F0008E0F9F1F08950F931F93CF93DF93182F62
:10380000092FEB018B8181FD03C08FEF9FEF20C05B
:1038100082FF10C04E815F812C813D81421753078A
:103820007CF4E881F9819F012F5F3F4F3983288322
:10383000108306C0E885F985812F0995892B29F722
:103840002E813F812F5F3F4F3F832E83812F902F0B
:10385000DF91CF911F910F910895FA01AA27283087
:1038600051F1203181F1E8946F936E7F6E5F7F4F4D
:103870008F4F9F4FAF4FB1E03ED0B4E03CD0670FC9
:10388000781F891F9A1FA11D680F791F8A1F911D1C
:10389000A11D6A0F711D811D911DA11D20D009F46C
:1038A00068943F912AE0269F11243019305D3193AE
:1038B000DEF6CF010895462F4770405D4193B3E097
:1038C0000FD0C9F7F6CF462F4F70405D4A3318F03E
:1038D000495D31FD4052419302D0A9F7EACFB4E0EF
:1038E000A6959795879577956795BA95C9F70097A7
:1038F0006105710508959B01AC010A2E0694579548
:10390000479537952795BA95C9F7620F731F841F9E
:10391000951FA01D0895DB018F939F930BD0BF913E
:10392000AF91A29F800D911DA39F900DB29F900D0E
:103930001124089540D0A59F900DB49F900DA49F91
:10394000800D911D112408952F923F924F925F9206
:103950006F927F928F929F92AF92BF92CF92DF929F
:10396000EF92FF920F931F93CF93DF93CDB7DEB704
:10397000CA1BDB0B0FB6F894DEBF0FBECDBF099498
:103980002A88398848885F846E847D848C849B84EF
:10399000AA84B984C884DF80EE80FD800C811B81FD
:1039A000AA81B981CE0FD11D0FB6F894DEBF0FBE2C
:1039B000CDBFED010895A29FB001B39FC001A39FA9
:1039C000700D811D1124911DB29F700D811D112458
:0839D000911D0895F894FFCF4A
:1039D80000831000000104100000018208000001AB
:0C39E800000000000000000000000000D3
:00000001FF
