:100000000C9444010C9461010C9461010C94610105
:100010000C9461010C9461010C9461010C946101D8
:100020000C9461010C9461010C94AE0C0C94610170
:100030000C9461010C9461010C9461010C946101B8
:100040000C9461010C9461010C9461010C946101A8
:100050000C9461010C9461010C9461010C94610198
:100060000C9461010C9461010C9461010C94610188
:100070000C9461010C9461010C9461010C94610178
:100080000C9461010C9461010C9461010C94610168
:100090000C9461010C9461010C9461010C94610158
:1000A0000C9461010C9461010C946101710E980E25
:1000B000C30F980EC30FE00E030FC30F660F7A0F26
:1000C0003803430061007000610063006900740040
:1000D0007900530065006E0073006F0072005F00CE
:1000E000500047005F0032003000320032002F0025
:1000F000320030003200330000003E035300310074
:1001000037003900390039003100200042006F000B
:1001100072006F007700690063006B0069002000C7
:10012000410072006B00610064006900750073009B
:100130007A0020005000470000000403090409026F
:100140003E00020100C03209040000010202010069
:1001500005240010010424020605240600010705F9
:1001600082030800FF09040100020A0000000705DD
:10017000040210000507058302100005120110019A
:1001800002000008EB03442001000102DC010040F2
:100190007A10F35A00A0724E18090010A5D4E80096
:1001A00000E87648170000E40B54020000CA9A3BAE
:1001B000000000E1F5050000809698000000404234
:1001C0000F000000A08601000000102700000000C2
:1001D000E803000000006400000000000A000000C6
:1001E00000000100000000002C76D888DC674F0872
:1001F00023DFC1DFAE59E1B1B796E5E3E453C63A78
:10020000E651997696E8E6C28426EB898C9B62EDEE
:10021000407C6FFCEFBC9C9F40F2BAA56FA5F490A8
:10022000055A2AF75C936B6CF9676DC11BFCE0E41F
:100230000D47FEF520E6B500D0ED902E0300943575
:1002400077050080841E080000204E0A000000C8C8
:100250000C333333330F986E12831141EF8D211419
:10026000893BE65516CFFEE6DB18D1844B381BF7E9
:100270007C1D901DA4BBE424203284725E22810088
:10028000C9F124ECA1E53D2711241FBECFEFDAE030
:10029000DEBFCDBF11E0A0E0B1E0EEE0F5E302C0CB
:1002A00005900D92A832B107D9F721E0A8E2B1E09C
:1002B00001C01D92A13EB207E1F70E9426150C94E1
:1002C000851A0C9400009B01AC0160E074E284EF9D
:1002D00090E00E94C0152F503109C901969587956D
:1002E0002170280F2093B8000895E8E2F1E0108211
:1002F00011820C946301E8E2F1E08081108208959C
:1003000080912901089580912801811107C084EA14
:100310008093BC008091BC0087FFFCCF089584E9E6
:100320008093BC00089590912801911109C0809399
:10033000BB0084E88093BC008091BC0087FFFCCFA9
:100340000895CF93C82F0E9483018C2F880F0E949D
:10035000930184E98093BC009091280110922801B8
:1003600081E0911180E0CF9108950C9493019091D8
:100370002801911124C090E4899F900111242468E0
:100380002093BC009091BC0097FFFCCF2091B90056
:10039000287F30E0811103C088E590E002C080E54D
:1003A00090E02817390741F081E08093280180917F
:1003B000B900887F809329018091BB00089580E077
:1003C0000895DF92EF92FF920F931F93CF93DF93E5
:1003D000D82E162FEA0179010E9483018D2D880FF6
:1003E0000E949301812F0E949301EC0EFD1ECE15F9
:1003F000DF0521F089910E949301F9CF011103C01B
:1004000084E98093BC00DF91CF911F910F91FF9001
:10041000EF90DF900895EF92FF920F931F93CF9389
:10042000DF93182F062F7A01E9010E948301812FA3
:10043000880F0E949301802F0E9493010E948301E4
:10044000812F880F81600E949301209751F021979E
:1004500081E009F480E00E94B701F70181937F01F8
:10046000F4CF84E98093BC00DF91CF911F910F916D
:10047000FF90EF900895CF93DF9300D0CDB7DEB714
:1004800089836A83FE0131969E012D5F3F4F9FEF66
:1004900051E38191982788E097FF03C0990F952732
:1004A00001C0990F8150C1F7E217F30791F781E07E
:1004B000941380E00F900F90DF91CF910895CF9328
:1004C000DF93EC010E94830180EE0E94B5018D2F25
:1004D0000E9493018C2F0E949301DF91CF910C9485
:1004E0008F0180932B0108951F93CF93DF9388ECA6
:1004F0009FEE0E945F020E94830181EE0E94B5017F
:1005000081E00E94B701D82F81E00E94B701C82F77
:1005100081E00E94B701182F0E948F01412F6C2F9C
:100520008D2F0E943B02882351F08C2F90E09D2B51
:100530008F7398708730984021F480E003C08D2F2E
:1005400001C083E0DF91CF911F910895CF9387E1A0
:1005500095E30E945F028FEB93E00197F1F700C0F3
:1005600000000E947402C82F88E990EB0E945F028D
:100570008FEB93E00197F1F700C0000010922B0180
:100580008C2FCF910895EF92FF920F931F93CF93EB
:10059000DF9387E195E30E945F028FEB93E0019781
:1005A000F1F700C0000080912B01882349F08CE90D
:1005B00090E60E945F028FE99FE00197F1F708C083
:1005C00086E698E70E945F028FE59AEE0197F1F7C1
:1005D00000C000000E94830181EE0E94B50181E00D
:1005E0000E94B701182F81E00E94B701082F81E017
:1005F0000E94B701E82E81E00E94B701C82F81E078
:100600000E94B701D82F81E00E94B701F82E0E9406
:100610008F0188E990EB0E945F028FEB93E00197D6
:10062000F1F700C00000602F70E0712B80E090E0D7
:100630000E94FA1620E030E04FE253E40E9488174F
:1006400020E03FEF4FE757E40E94611620E030E0E2
:1006500044E352E40E94FC1560932C0170932D0139
:1006600080932E0190932F016D2F70E07C2B80E002
:1006700090E00E94FA1620E03FEF4FE757E40E9417
:10068000611620E030E048EC52E40E948817609345
:1006900030017093310180933201909333014E2DDC
:1006A000602F812F0E943B02882349F04F2D6D2F30
:1006B0008C2F0E943B02882311F080E001C082E071
:1006C000DF91CF911F910F91FF90EF90089560916E
:1006D0002C0170912D0180912E0190912F01089590
:1006E000609130017091310180913201909133011C
:1006F00008958091510182FF0BC08091D8008F7DB9
:100700008093D8008091E00082608093E00008C070
:1007100080E189BD82E189BD09B400FEFDCFEDCF46
:100720008091E00081FDFCCF0895EF92FF920F933E
:100730001F93CF93DF937C018B016115710521F02D
:10074000FB01C081D18102C0C0E0D0E00E94A00BBB
:10075000811119C0CE15DF05A8F48091E80085FD50
:100760000DC08091E8008B778093E800011511059A
:1007700069F3F801D183C08385E005C08091F10061
:100780002196E8CF80E0DF91CF911F910F91FF90EC
:10079000EF900895EF92FF920F931F93CF93DF9303
:1007A0007C018B016115710521F0FB01C081D181B4
:1007B00002C0C0E0D0E00E94A00B811119C0CE158C
:1007C000DF05A8F48091E80085FD0DC08091E80068
:1007D0008E778093E8000115110569F3F801D18344
:1007E000C08385E005C01092F1002196E8CF80E03B
:1007F000DF91CF911F910F91FF90EF900895CF92CD
:10080000DF92EF92FF920F931F93CF93DF93EC0150
:100810008B017A010E94A00B811135C0E114F10413
:1008200039F0F70180819181081B190BC80FD91F7E
:10083000C12CD12C0115110529F18091E80085FD0D
:1008400018C08091E8008E778093E8000E94DF0F47
:10085000E114F10449F0F70180819181C80ED91E9D
:10086000D182C08285E00FC00E94A00B882311F3C3
:100870000AC089918093F10001501109FFEFCF1A4E
:10088000DF0AD8CF80E0DF91CF911F910F91FF90C9
:10089000EF90DF90CF900895CF92DF92EF92FF928A
:1008A0000F931F93CF93DF93EC018B017A010E948A
:1008B000A00B81113AC0C8010197C80FD91FE114DC
:1008C000F10439F0F70180819181081B190BC81BD5
:1008D000D90BC12CD12C0115110531F18091E80003
:1008E00085FD18C08091E8008E778093E8000E9413
:1008F000DF0FE114F10449F0F70180819181C80E06
:10090000D91ED182C08285E010C00E94A00B88232E
:1009100011F30BC088818093F100219701501109D8
:10092000FFEFCF1ADF0AD7CF80E0DF91CF911F9181
:100930000F91FF90EF90DF90CF900895CF92DF92CC
:10094000EF92FF920F931F93CF93DF93EC018B01F4
:100950007A010E94A00B811135C0E114F10439F035
:10096000F70180819181081B190BC80FD91FC12C79
:10097000D12C0115110529F18091E80085FD18C0E1
:100980008091E8008B778093E8000E94DF0FE114EC
:10099000F10449F0F70180819181C80ED91ED182FE
:1009A000C08285E00FC00E94A00B882311F30AC00B
:1009B0008091F100899301501109FFEFCF1ADF0AEE
:1009C000D8CF80E0DF91CF911F910F91FF90EF90F2
:1009D000DF90CF900895CF92DF92EF92FF920F9326
:1009E0001F93CF93DF93EC018B017A010E94A00B40
:1009F00081113AC0C8010197C80FD91FE114F10451
:100A000039F0F70180819181081B190BC81BD90BA4
:100A1000C12CD12C0115110531F18091E80085FD23
:100A200018C08091E8008B778093E8000E94DF0F68
:100A3000E114F10449F0F70180819181C80ED91EBB
:100A4000D182C08285E010C00E94A00B882311F3E0
:100A50000BC08091F1008883219701501109FFEFAD
:100A6000CF1ADF0AD7CF80E0DF91CF911F910F918E
:100A7000FF90EF90DF90CF900895CF92DF92EF92AA
:100A8000FF920F931F93CF93DF93EC018B017A01B9
:100A90000E94A00B811137C0E114F10439F0F70175
:100AA00080819181081B190BC80FD91FC12CD12C33
:100AB0000115110539F18091E80085FD18C080917C
:100AC000E8008E778093E8000E94DF0FE114F104C4
:100AD00049F0F70180819181C80ED91ED182C08270
:100AE00085E011C00E94A00B882311F30CC0FE0109
:100AF00084918093F100219601501109FFEFCF1AE4
:100B0000DF0AD6CF80E0DF91CF911F910F91FF9048
:100B1000EF90DF90CF900895CF92DF92EF92FF9207
:100B20000F931F93CF93DF93EC018B017A010E9407
:100B3000A00B81113BC0C8010197C80FD91FE11458
:100B4000F10439F0F70180819181081B190BC81B52
:100B5000D90BC12CD12C0115110539F18091E80078
:100B600085FD18C08091E8008E778093E8000E9490
:100B7000DF0FE114F10449F0F70180819181C80E83
:100B8000D91ED182C08285E011C00E94A00B8823AB
:100B900011F30CC0FE0184918093F1002197015064
:100BA0001109FFEFCF1ADF0AD6CF80E0DF91CF9196
:100BB0001F910F91FF90EF90DF90CF900895CF920B
:100BC000DF92EF92FF920F931F93CF93DF93EC018D
:100BD0008B017A010E94A00B811138C0E114F1044D
:100BE00039F0F70180819181081B190BC80FD91FBB
:100BF000C12CD12C0115110541F18091E80085FD32
:100C000018C08091E8008E778093E8000E94DF0F83
:100C1000E114F10449F0F70180819181C80ED91ED9
:100C2000D182C08285E012C00E94A00B882311F3FC
:100C30000DC0CE010E9415188093F100219601503D
:100C40001109FFEFCF1ADF0AD5CF80E0DF91CF91F6
:100C50001F910F91FF90EF90DF90CF900895CF926A
:100C6000DF92EF92FF920F931F93CF93DF93EC01EC
:100C70008B017A010E94A00B81113CC0C801019731
:100C8000C80FD91FE114F10439F0F7018081918177
:100C9000081B190BC81BD90BC12CD12C0115110530
:100CA00041F18091E80085FD18C08091E8008E77C1
:100CB0008093E8000E94DF0FE114F10449F0F7018E
:100CC00080819181C80ED91ED182C08285E012C078
:100CD0000E94A00B882311F30DC0CE010E941518AD
:100CE0008093F100219701501109FFEFCF1ADF0A1D
:100CF000D5CF80E0DF91CF911F910F91FF90EF90C2
:100D0000DF90CF900895CF92DF92EF92FF920F93F2
:100D10001F93CF93DF93EC018B017A010E94A00B0C
:100D2000811138C0E114F10439F0F701808191811B
:100D3000081B190BC80FD91FC12CD12C0115110587
:100D400041F18091E80085FD18C08091E8008B7723
:100D50008093E8000E94DF0FE114F10449F0F701ED
:100D600080819181C80ED91ED182C08285E012C0D7
:100D70000E94A00B882311F30DC06091F100CE01F9
:100D80000E941D18219601501109FFEFCF1ADF0AAA
:100D9000D5CF80E0DF91CF911F910F91FF90EF9021
:100DA000DF90CF900895CF92DF92EF92FF920F9352
:100DB0001F93CF93DF93EC018B017A010E94A00B6C
:100DC00081113CC0C8010197C80FD91FE114F1047B
:100DD00039F0F70180819181081B190BC81BD90BD1
:100DE000C12CD12C0115110541F18091E80085FD40
:100DF00018C08091E8008B778093E8000E94DF0F95
:100E0000E114F10449F0F70180819181C80ED91EE7
:100E1000D182C08285E012C00E94A00B882311F30A
:100E20000DC06091F100CE010E941D182197015064
:100E30001109FFEFCF1ADF0AD5CF80E0DF91CF9104
:100E40001F910F91FF90EF90DF90CF900895209128
:100E50005D0130915E012617370748F06115710575
:100E600039F42091E8002E772093E80001C0B90101
:100E7000382F492F20E06115710509F441C0809198
:100E80005601882309F44FC0853009F44EC0809183
:100E9000E80083FD4CC08091E80082FD3EC0809157
:100EA000E80080FFE8CF5091F3002091F200822FFC
:100EB00090E0952BE32FF42F8E1B9F0BAF01480F73
:100EC000591F209100016115710559F0A22FB0E062
:100ED0004A175B0730F421912093F10061507109AA
:100EE000EDCF822F90E021E08417950709F020E0F4
:100EF0008091E8008E778093E8003E2F4F2FBBCF84
:100F00002111BDCF0AC080915601882361F0853040
:100F100061F08091E80083FD0AC08091E80082FFC3
:100F2000F2CF80E0089582E0089583E0089581E0A3
:100F300008959B0121503109820F931F20915D017B
:100F400030915E012617370748F06115710539F4B5
:100F50002091E8002E772093E80001C0B901E0E07D
:100F600061157105D1F120915601222309F448C081
:100F7000253009F447C02091E80023FD45C02091A9
:100F8000E80022FD37C02091E80020FFE9CF409122
:100F9000F3002091F20030E0342B40910001611504
:100FA000710579F0E42FF0E02E173F0750F4FC01B3
:100FB00040814093F1000197615071092F5F3F4FCD
:100FC000ECCF50E0E1E04217530709F0E0E0209158
:100FD000E8002E772093E800C3CFE111C4CF0AC008
:100FE00080915601882361F0853061F08091E8009E
:100FF00083FD0AC08091E80082FFF2CF80E008956F
:1010000082E0089583E0089581E0089561157105F7
:1010100029F42091E8002B772093E800FC0161156A
:10102000710541F180915601882361F1853061F1AC
:101030008091E80083FD24C08091E80082FFEFCF1B
:101040002091F3008091F20090E0922B892B31F0F7
:101050008091F10081936150710991F78091E800CE
:101060008B778093E800DBCF80915601882351F085
:10107000853051F08091E80080FFF6CF80E0089540
:1010800081E0089582E0089583E008959B01215056
:101090003109820F931F6115710529F42091E80031
:1010A0002B772093E8006115710529F120915601F5
:1010B000222349F1253049F12091E80023FD21C088
:1010C0002091E80022FFEFCF4091F3002091F20041
:1010D00030E0342B232B11F32091F100FC0120830D
:1010E00001976150710981F7D9CF8091560188230A
:1010F00051F0853051F08091E80080FFF6CF80E01C
:10110000089581E0089582E0089583E00895209194
:101110005D0130915E012617370748F061157105B2
:1011200039F42091E8002E772093E80001C0B9013E
:10113000382F492F20E06115710509F442C08091D4
:101140005601882309F450C0853009F44FC08091BE
:10115000E80083FD4DC08091E80082FD3FC0809192
:10116000E80080FFE8CF5091F3002091F200822F39
:1011700090E0952BE32FF42F8E1B9F0BAF01480FB0
:10118000591F209100016115710561F0A22FB0E097
:101190004A175B0738F424912093F100319661508F
:1011A0007109ECCF822F90E021E08417950709F0B8
:1011B00020E08091E8008E778093E8003E2F4F2F4B
:1011C000BACF2111BCCF0AC080915601882361F0AB
:1011D000853061F08091E80083FD0AC08091E800CD
:1011E00082FFF2CF80E0089582E0089583E00895C1
:1011F00081E00895FB0131978E0F9F1F20915D01C3
:1012000030915E012617370748F06115710539F4F2
:101210002091E8002E772093E80001C0B901E0E0BA
:1012200061157105D1F120915601222309F448C0BE
:10123000253009F447C02091E80023FD45C02091E6
:10124000E80022FD37C02091E80020FFE9CF40915F
:10125000F3002091F20030E0342B40910001611541
:10126000710579F0E42FF0E02E173F0750F4FC01F0
:1012700044914093F1000197615071092F5F3F4FF6
:10128000ECCF50E0E1E04217530709F0E0E0209195
:10129000E8002E772093E800C3CFE111C4CF0AC045
:1012A00080915601882361F0853061F08091E800DB
:1012B00083FD0AC08091E80082FFF2CF80E00895AC
:1012C00082E0089583E0089581E00895EF92FF920F
:1012D0000F931F93CF93DF938B0120915D0130918A
:1012E0005E012617370740F0672B39F42091E8009C
:1012F0002E772093E80001C0890120E00115110537
:1013000009F440C030915601332309F44EC0353002
:1013100009F44DC03091E80033FD4BC03091E80036
:1013200032FD3DC03091E80030FFE8CF2091F3005E
:10133000E090F200F12CF22AEC01E81AF90AAE0171
:101340004E0D5F1D809100010115110571F0282FD0
:1013500030E04217530748F4CE010E9415188093DD
:10136000F100219601501109EACF90E021E08417A5
:10137000950709F020E08091E8008E778093E800DF
:10138000CE01BCCF2111BECF0AC080915601882367
:1013900061F0853061F08091E80083FD0AC08091A2
:1013A000E80082FFF2CF80E005C082E003C083E066
:1013B00001C081E0DF91CF911F910F91FF90EF90DD
:1013C0000895CF92DF92EF92FF920F931F93CF93E6
:1013D000DF93EB016B0121E0C21AD108C80ED91EC0
:1013E00080915D0190915E018617970740F02097EC
:1013F00039F48091E8008E778093E80001C0EC0119
:1014000040E0209709F442C080915601882309F4F6
:1014100050C0853009F44FC08091E80083FD4DC075
:101420008091E80082FD3FC08091E80080FFE9CF15
:101430008091F3000091F20010E0182B7E01C701AB
:101440008C1B9D0B8C0D9D1D20910001E114F1045E
:1014500079F0422F50E00417150750F40E94151838
:101460008093F10081E0E81AF1080F5F1F4FE7CF8A
:1014700030E041E02017310709F040E02091E8001A
:101480002E772093E8006C01E701BBCF4111BCCF60
:101490000AC080915601882361F0853061F0809107
:1014A000E80083FD0AC08091E80082FFF2CF80E06F
:1014B00005C082E003C083E001C081E0DF91CF91ED
:1014C0001F910F91FF90EF90DF90CF9008950F93B1
:1014D0001F93CF93DF93EB01209729F42091E8002D
:1014E0002B772093E8008C01209759F180915601C9
:1014F000882379F1853079F18091E80083FD27C058
:101500008091E80082FFF0CF2091F3008091F200FB
:1015100090E0922B892B49F06091F100C8010E9464
:101520001D180F5F1F4F219779F78091E8008B7787
:101530008093E800D9CF80915601882351F08530FF
:1015400051F08091E80080FFF6CF80E005C081E097
:1015500003C082E001C083E0DF91CF911F910F9122
:1015600008950F931F93CF93DF93EB018B010150ED
:101570001109080F191F209729F48091E8008B7733
:101580008093E800209731F180915601882351F132
:10159000853051F18091E80083FD22C08091E80000
:1015A00082FFF0CF2091F3008091F20090E0922B27
:1015B000892B19F36091F100C8010E941D18015098
:1015C0001109219779F7D9CF80915601882351F0DD
:1015D000853051F08091E80080FFF6CF80E005C0B3
:1015E00081E003C082E001C083E0DF91CF911F91D1
:1015F0000F910895982F973068F59093E900981708
:1016000039F07091EC002091ED005091F00003C092
:10161000242F762F50E021FD02C09F5FECCF309148
:10162000EB003E7F3093EB003091ED003D7F309337
:10163000ED003091EB0031603093EB007093EC00E3
:101640002093ED005093F0002091EE0027FDE5CFB0
:1016500080E008958F708093E90081E008950F93F2
:101660001F93CF93DF93062FEC0110E0101779F151
:101670006881611103C01F5F2596F8CF2C81A98175
:10168000BA819B81862F8F70873010F080E020C058
:10169000223010F442E001C046E0E8E0F0E020E053
:1016A000EA17FB0720F42F5FEE0FFF1FF9CF2295FB
:1016B000207F422B50E4959F90011124661F6627DE
:1016C000661F622B0E94FA0A8111D5CFDFCF81E01D
:1016D000DF91CF911F910F9108951092F40080E057
:1016E0008093E9001092F0001092E8001092ED0053
:1016F0009091EB009E7F9093EB008F5F873081F796
:1017000008958091570187FF11C08091E80082FD04
:1017100005C0809156018111F8CF11C08091E80079
:101720008B770BC080915601882349F08091E800A7
:1017300080FFF8CF8091E8008E778093E8000895CD
:101740002091E4003091E50095E64091EC00842F73
:10175000817040FF23C08091E80080FD1DC0809112
:101760005601882399F0853099F08091EB0085FD32
:1017700011C04091E4005091E5002417350729F38A
:10178000915011F09A01E1CF84E0089582E008952C
:1017900083E0089581E0089580E008954091E80095
:1017A00042FFDDCF08950E94A10C0E94A90C8091F8
:1017B000E00081608093E0008091D8008F77809373
:1017C000D8008091510182FF19BC8091510183FDA5
:1017D00005C08091D7008E7F8093D7008091D8007C
:1017E0008F7E8093D800109255010895CF93DF9398
:1017F00000D01F92CDB7DEB70E94A10C0E94A90CA9
:101800008091D8008F778093D8008091D80080682D
:101810008093D8008091D8008F7D8093D8008091EC
:10182000510182FF19BC1092560110925201109280
:101830005401109253019E012D5F3F4FAE014F5F47
:101840005F4F60E070E080E091E00E941314892B0C
:10185000A1F08B81E981FA81811105C03796E4916D
:10186000E09300010AC0813029F4CF0107960E945D
:10187000151801C08781809300018091510180FF7C
:1018800004C08091E000846003C08091E0008B7F01
:101890008093E0008091D80081608093D8002091EF
:1018A000000130E088E090E040E08217930720F4E8
:1018B0004F5F880F991FF9CF4295407F426060E0EB
:1018C00080E00E94FA0A8091E1008E7F8093E1001F
:1018D0008091E20081608093E2008091E200886064
:1018E0008093E2008091E0008E7F8093E000809101
:1018F000D80080618093D8000F900F900F90DF91F7
:10190000CF910895809351018091D8008F7E80936C
:10191000D8008091510181FD04C08091D700816081
:1019200003C08091D7008E7F8093D70080915101B2
:1019300082FD02C084E082BF81E0809355010C9457
:10194000F60BE8EDF0E080818E7F80831092E2005C
:1019500008951092DA001092E10008951F920F92FC
:101960000FB60F9211242F933F934F935F936F9372
:101970007F938F939F93AF93BF93EF93FF93809148
:10198000E10082FF0BC08091E20082FF07C08091DE
:10199000E1008B7F8093E1000E94DC0F8091DA00F0
:1019A00080FF27C08091D80080FF23C08091DA009B
:1019B0008E7F8093DA008091D90080FF12C08091E1
:1019C000510182FF06C081E0809356010E9481157B
:1019D00010C080E189BD82E189BD09B400FEFDCF60
:1019E000F2CF8091510182FF19BC109256010E94E2
:1019F00083158091E10080FF1CC08091E20080FF90
:101A000018C08091E2008E7F8093E2008091E20016
:101A100080618093E2008091D80080628093D8003A
:101A20008091510182FF19BC85E0809356010E948C
:101A3000DC0F8091E10084FF35C08091E20084FFDB
:101A400031C08091510182FF1AC08091D8008F7DF2
:101A50008093D8008091E1008F7E8093E100809197
:101A6000E2008F7E8093E2008091E20081608093AB
:101A7000E20080915201882351F084E00FC080E1A0
:101A800089BD82E189BD09B400FEFDCFDECF809122
:101A9000E30087FD02C081E001C083E0809356012E
:101AA0000E94DC0F8091E10083FF33C08091E2004F
:101AB00083FF2FC08091E100877F8093E10082E067
:101AC00080935601109252018091E1008E7F8093A5
:101AD000E1008091E2008E7F8093E2008091E2003D
:101AE00080618093E2002091000130E088E090E086
:101AF00040E08217930720F44F5F880F991FF9CFBA
:101B00004295407F426060E080E00E94FA0A0E94B5
:101B1000DC0FFF91EF91BF91AF919F918F917F91DA
:101B20006F915F914F913F912F910F900FBE0F904A
:101B30001F901895CF93DF93FC01208131812115EF
:101B40003105B9F0DB01ED91FC91A081B0E0E90134
:101B5000A217B30708F4ED01EC0FFD1FDB01ED93B5
:101B6000FC932C1B3D0BDC012D933C932181241312
:101B7000E3CFDF91CF9108950F931F93CF93DF931E
:101B8000DC01ED91FC913097E1F0EB01A881B98186
:101B9000CC91D0E08F01CE17DF0708F48E01A00FA3
:101BA000B11FEB01B983A883E01BF10BEC01F983B2
:101BB000E88311963C91341721F03213E1CF19825A
:101BC0001882DF91CF911F910F910895FF920F938B
:101BD0001F93CF93DF93EC018B01F42E422F0E94D1
:101BE0009A0D88819981892B51F04F2DB801CE0132
:101BF000DF91CF911F910F91FF900C949A0DDF917F
:101C0000CF911F910F91FF900895AF92BF92CF9205
:101C1000DF92EF92FF920F931F93CF93DF938C018C
:101C20007B015A01F801C081D181209721F1F70190
:101C3000C080D180F601808190E09E018C179D07C5
:101C400008F49C01C601820F931FF70191838083E2
:101C5000AE01421B530BF80151834083F5010995F6
:101C6000823001F3813041F4F701D182C082F80162
:101C7000D183C08301C082E0DF91CF911F910F918A
:101C8000FF90EF90DF90CF90BF90AF9008950F93AB
:101C90001F93CF93DF93CDB7DEB7AB970FB6F89412
:101CA000DEBF0FBECDBFE7E5F1E08091F10081938B
:101CB00021E0EF35F207C9F70E9496158091E80000
:101CC00083FF61C18091570190915801492F50E0E5
:101CD0004A30510508F057C1FA01EA5AFF4F0C94F7
:101CE000E215803821F0823809F04DC108C080919A
:101CF000530190915401992389F082600FC0809123
:101D00005B018F70873008F03EC18093E9008091BD
:101D1000EB0085FB882780F91092E9009091E8009C
:101D2000977F9093E8008093F1001092F100DAC061
:101D3000282F2D7F09F027C1882319F0823061F008
:101D400022C180915901813009F01DC1933009F001
:101D500080E0809354012EC08091590181112AC0E6
:101D600080915B018F702FEF280F263008F00BC198
:101D70008093E9002091EB0020FF1CC0933021F4F8
:101D80008091EB00806214C09091EB009061909381
:101D9000EB0021E030E0A90102C0440F551F8A95F5
:101DA000E2F74093EA001092EA008091EB0088602D
:101DB0008093EB001092E9008091E800877F95C046
:101DC0008111E1C0109159011F778091E300807863
:101DD000812B8093E3008091E800877F8093E80067
:101DE0000E94810B8091E80080FFFCCF8091E3008E
:101DF00080688093E300111102C082E001C083E09B
:101E000080935601C0C08058823008F0BCC08091D9
:101E1000590190915A018C3D53E0950769F583E093
:101E20008A838AE289834FB7F894DE01139620E013
:101E30003EE051E2E32FF0E050935700E49120FFA1
:101E400003C0E295EF703F5FEF708E2F90E0EA30B5
:101E500010F0C79601C0C0968D939D932F5F2431DB
:101E600049F74FBF8091E800877F8093E8006AE2DE
:101E700070E0CE01019622C060915B0170915C011F
:101E80009E01255D3F4FAE014F5F5F4F0E941314CF
:101E9000BC01892B09F477C08091E800877F80938B
:101EA000E8002BA589819A81211103C00E9487082F
:101EB00007C0213019F40E94660902C00E9427075A
:101EC0008091E8008B778093E8005DC0803809F04E
:101ED0005AC08091E800877F8093E800809152018A
:101EE0008093F1008091E8008E778093E8000E9453
:101EF000810B49C0811147C09E01255D3F4FAE0156
:101F00004F5F5F4F60E070E080E091E00E9413144B
:101F1000892BC9F18BA50091590110915A01E981D2
:101F2000FA81811108C07196E4911127F0E0E01761
:101F3000F1074CF10EC0813031F4CF0141960E947F
:101F40001518112702C01127818990E08017910789
:101F5000D4F08091E800877F8093E8008091590158
:101F6000809352010E94810B80915201811106C021
:101F70008091E30087FD02C081E001C084E080938E
:101F800056010E9485158091E80083FF0AC0809168
:101F9000E800877F8093E8008091EB008062809367
:101FA000EB00AB960FB6F894DEBF0FBECDBFDF914E
:101FB000CF911F910F910895089508950895CF939B
:101FC000809156018823A1F0C091E900CF709091D3
:101FD000EC00892F817090FD80E8C82B1092E900F9
:101FE0008091E80083FD0E94470ECF70C093E90006
:101FF000CF910895CF93DF93EC01FC0170968BE0B5
:10200000DF011D928A95E9F782E08C83898783E05E
:102010008E8761E0CE0101960E942F0B882371F01C
:1020200061E0CE0106960E942F0B882339F061E013
:10203000CE010B96DF91CF910C942F0B80E0DF91B6
:10204000CF910895DB01209156012430D1F4FC0199
:102050004489558966897789452B462B472B89F01A
:1020600081818F708093E900FD0101900020E9F7E4
:102070003197BF016A1B7B0B40E050E0CD010C940F
:10208000FF0382E00895FC019B01BA018091560193
:10209000843089F484899589A689B789892B8A2B0C
:1020A0008B2B49F091819F709093E90040E050E0C4
:1020B000C9010C94FF0382E008950F931F93CF93FF
:1020C000DF93209156012430D9F4FC01048915894D
:1020D00026893789012B022B032B91F0EB0181819B
:1020E0008F708093E900CB010E940C1840E050E013
:1020F000BC01CE01DF91CF911F910F910C943D0552
:1021000082E0DF91CF911F910F910895FC019B0117
:10211000BA0180915601843089F484899589A68911
:10212000B789892B8A2B8B2B49F091819F709093D3
:10213000E90040E050E0C9010C943D0582E00895BB
:102140000F931F93CF9320915601243001F5FC018A
:102150000489158926893789012B022B032BB9F0B5
:10216000C62F81818F708093E9008091E80085FF00
:1021700004C0C093F10080E00BC08091E8008E772E
:102180008093E8000E94A00B882399F301C082E0AD
:10219000CF911F910F910895CF93C82FFB01682F06
:1021A000848595850E94A010811103C08C2F90E03A
:1021B00002C08FEF9FEFCF910895209156012430F8
:1021C00049F5FC014489558966897789452B462B59
:1021D000472B01F181818F708093E9002091F300FA
:1021E0008091F20090E0922B892B91F09091E80081
:1021F0008091E8008E778093E80095FD09C00E94E9
:10220000A00B811108C08091E8008E778093E800D0
:1022100080E0089582E0089520915601243091F4E1
:10222000FC014489558966897789452B462B472BC4
:1022300049F021812F702093E9002091E80020FDD2
:102240000C94DD10089520915601243019F080E09F
:1022500090E00895FC014489558966897789452B6A
:10226000462B472BA1F386818F708093E9008091E4
:10227000E80082FFECCF2091F3008091F20090E023
:10228000922B009731F42091E8002B772093E800FF
:1022900008952091F3008091F20090E0922B089530
:1022A00020915601243019F08FEF9FEF0895FC0123
:1022B0004489558966897789452B462B472BA1F39D
:1022C00086818F708093E9008091E80082FFECCFD7
:1022D0002091F3008091F20090E0922B892B21F065
:1022E0002091F10030E002C02FEF3FEF4091F3006A
:1022F0008091F20090E0942B892B29F48091E800E2
:102300008B778093E800C9010895FC018485958549
:102310000E94501197FF02C08EEF9FEF0895CF9358
:10232000DF93EC018C859D850E94501197FF0DC0B5
:1023300080915601882339F08C859D850E940C116F
:102340000E94DF0FEFCF8EEF9FEFDF91CF910895C7
:102350000F931F93CF93DF93CDB7DEB728970FB6B8
:10236000F894DEBF0FBECDBF20915601243061F539
:10237000FC014489558966897789452B462B472B73
:1023800019F18C0183858F708093E90088E0ECE17E
:10239000F1E0DE01119601900D928A95E1F740E09F
:1023A00050E068E070E0CE0101960E94FF0340E03B
:1023B00050E062E070E0C80142960E94FF03809105
:1023C000E8008E778093E80028960FB6F894DEBF79
:1023D0000FBECDBFDF91CF911F910F910895FB01EB
:1023E0002EE0DB011D922A95E9F723E023832CECF4
:1023F00030E13187208725E831E1338722879587CF
:1024000084870895FB012EE0DB011D922A95E9F7F0
:1024100023E023832CEC30E1318720872FE831E162
:102420003387228795878487089508950895CF93E9
:10243000DF93EC018091E80083FFADC0888190E0DC
:1024400020915B0130915C012817390709F0A3C086
:1024500080915801813261F020F4803209F43FC04C
:102460009AC0823209F46FC0833209F482C093C0EB
:1024700080915701813A09F08EC08091E800877FF2
:102480008093E8008091E80080FFFCCF8C899D89D3
:10249000AE89BF898093F100492F5A2F6B2F772780
:1024A0004093F100AD01662777274093F1008B2F11
:1024B0009927AA27BB278093F100888D8093F1008C
:1024C000898D8093F1008A8D8093F1008091E800DE
:1024D0008E778093E800DF91CF910C94810B8091EF
:1024E0005701813209F057C08091E800877F8093BF
:1024F000E8008091E80082FD05C0809156018111BD
:10250000F8CF49C03091F1002091F1009091F10095
:102510008091F1003C8B2D8B9E8B8F8B8091F100F5
:10252000888F8091F100898F8091F1008A8F80914E
:10253000E8008B778093E8000E94810BCE01DF9149
:10254000CF910C94151280915701813221F5809121
:10255000E800877F8093E8000E94810B80915901F9
:1025600090915A01998B888BCE01DF91CF910C9479
:102570009C1580915701813271F48091E800877F2A
:102580008093E8000E94810B60915901CE01DF9198
:10259000CF910C941612DF91CF910895982F80FF60
:1025A00002C080E101C080E091FD806292FD806404
:1025B00093FD80680895EF92FF920F931F93CF933E
:1025C000DF9300D000D0CDB7DEB7F82E8091340174
:1025D000162F182B8F2D82958F700E94CE12012FEF
:1025E000082B8F2D0E94CE12812B902F94609983FF
:1025F0000A83982F94609B838C830E9483018EE4CE
:102600000E94B5018E010F5F1F4F7E0185E0E80E2D
:10261000F11CF80181918F010E9493010E151F0595
:10262000C1F70E948F018FED91E00197F1F700C093
:1026300000000F900F900F900F90DF91CF911F919E
:102640000F91FF90EF90089560E081E00E94DB120F
:102650008FE89CE40197F1F700C000000895EF9225
:10266000FF920F931F93CF93DF9300D000D0CDB78D
:10267000DEB70E9483018EE40E94B50180EF0E94C4
:1026800093010E948F0128988FE59AEE0197F1F748
:1026900000C0000080E389838A838B8380E28C837F
:1026A0000E9483018EE40E94B501FE0131967F01F4
:1026B00010E0F70101917F01802F84600E94930157
:1026C000802F0E949301111106C08FE89CE40197AE
:1026D000F1F700C000001F5F143059F70E948F010E
:1026E00060E088E20E94DB1260E088E00E94DB127A
:1026F00060E086E00E94DB1260E08CE00E94DB126A
:102700000F900F900F900F90DF91CF911F910F912D
:10271000FF90EF900C942413813031F0823031F02F
:10272000833031F090E005C090E403C090E101C037
:1027300090E580E8860F60E0890F0C94DB12FC01C5
:102740008EE0DF011D928A95E9F782E083838CECAD
:1027500093E191878087089588E0809334010E94F7
:1027600083018EE40E94B50180913401806F0E9444
:1027700093010C948F01109234010E9483018EE426
:102780000E94B50180EF0E9493010C948F0187FD98
:10279000877061E00C94DB120E94C71380E090E028
:1027A0000895CF93DF93EC018991882319F00E945B
:1027B000C713FACFDF91CF9108950F931F93CF9353
:1027C000DF93CDB7DEB760970FB6F894DEBF0FBECC
:1027D000CDBF242F8E010F5F1F4F40EF0E94EB17DC
:1027E000F80180E090E02191203241F4E1E0F0E056
:1027F000EC0FFD1FE80FF91F108204C00196803115
:10280000910589F7CE0101960E94D11360960FB60B
:10281000F894DEBF0FBECDBFDF91CF911F910F9116
:1028200008950C94DD13292F33272230310559F0F8
:102830002330310569F021303105E9F482E190E07F
:102840002CE731E01CC08EE390E02EE331E017C0AE
:1028500099278130910549F028F0029761F4E0EC66
:10286000F0E005C0EAE3F1E002C0EAEFF0E08491B5
:1028700090E09F0104C080E090E020E030E0FA01A9
:102880003183208308952E9A5C9A5A9A5B9A4798CE
:102890005D9A289A269A279A3F9A559A209A0895DF
:1028A00060EA76E881E090E00E94750187E20E948C
:1028B000A10190915F0180FB90F990935F0180E707
:1028C0000E94A10190915F0180FB91F990935F01BB
:1028D00080915F0181FF03C00E94A6025D988091F4
:1028E0005F0180FF07C00E942F1385E391E00E94E3
:1028F0009F132898089580E090E09C012F5F3F4F40
:10290000F901EE0FFF1FE15AFE4F11821082880F6E
:10291000991FFC01EF55FE4F11821082C901203230
:10292000310559F780915F01877F80935F01809126
:102930005F018B7F80935F0180915F018F7E809329
:102940005F0110926001089584B7877F84BF88E19A
:102950000FB6F89480936000109260000FBEE1E61D
:10296000F0E080E8808310820E94820C63E471E0D2
:1029700081E091E00C94EF114F925F926F927F9201
:102980008F929F92AF92BF92CF92DF92EF92FF927F
:102990000F931F93CF93DF936B017C0129013A01C1
:1029A0000E94C916072E000C880B990B0E94FC167A
:1029B0004B015C019B01AC01C701B6010E94FC15F3
:1029C00020E030E048EC52E40E9488170E94C916CB
:1029D0006B017C0120E030E048EC52E4C301B2011D
:1029E0000E9488170E94C9168B019C01C601B8017C
:1029F0000E94AC15A80155954795B601681B790B47
:102A00004817590714F4600F711F072E000C880B2C
:102A1000990B0E94FC1620E030E048EC52E40E9442
:102A20006116A50194010E94FD15DF91CF911F91C0
:102A30000F91FF90EF90DF90CF90BF90AF909F905D
:102A40008F907F906F905F904F9008950E944314F5
:102A50000E9450140E947B140E94A4142FEF83ED57
:102A600090E3215080409040E1F700C00000479B78
:102A700002C0479801C0479A0E94C3020E946703A0
:102A80004B015C010E9470036B017C010E942413C6
:102A90002DEC3CEC4CEC5DE3C501B4010E94BC1490
:102AA00042E00E94DD1360E081E00E948C132DEC77
:102AB0003CEC4CEC5DE3C701B6010E94BC1442E063
:102AC0000E94DD13CBCF0F931F93CF93DF93CDB72E
:102AD000DEB764970FB6F894DEBF0FBECDBF242FCC
:102AE0008E010F5F1F4F4CEE0E94EB1764960FB6DE
:102AF000F894DEBF0FBECDBFDF91CF911F910F9134
:102B00000895479A08954798089581E091E00E94BA
:102B1000FA0F5D98882321F080915F01806203C0E5
:102B200080915F018F7D80935F01089581E091E046
:102B30000E94171228980895FC01908980915F01E6
:102B400090FB85F980935F0180915F0185FF02C052
:102B5000289A08952898089597FB072E16F4009454
:102B600007D077FD09D00E94E81507FC05D03EF498
:102B7000909581959F4F0895709561957F4F089529
:102B8000A1E21A2EAA1BBB1BFD010DC0AA1FBB1F71
:102B9000EE1FFF1FA217B307E407F50720F0A21BE3
:102BA000B30BE40BF50B661F771F881F991F1A9450
:102BB00069F760957095809590959B01AC01BD017A
:102BC000CF010895EE0FFF1F0590F491E02D0994B9
:102BD000AA1BBB1B51E107C0AA1FBB1FA617B70743
:102BE00010F0A61BB70B881F991F5A95A9F780955F
:102BF0009095BC01CD0108955058BB27AA270ED04F
:102C00004DC13ED130F043D120F031F49F3F11F45B
:102C10001EF433C10EF4E095E7FB29C1E92F4FD133
:102C200080F3BA17620773078407950718F071F4E9
:102C30009EF567C10EF4E0950B2EBA2FA02D0B0167
:102C4000B90190010C01CA01A0011124FF27591BF1
:102C500099F0593F50F4503E68F11A16F040A22FF7
:102C6000232F342F4427585FF3CF46953795279568
:102C7000A795F0405395C9F77EF41F16BA0B620B67
:102C8000730B840BBAF09150A1F0FF0FBB1F661FAE
:102C9000771F881FC2F70EC0BA0F621F731F841FF1
:102CA00048F4879577956795B795F7959E3F08F017
:102CB000B3CF9395880F08F09927EE0F97958795D6
:102CC00008950CD0EBC0E3D040F0DAD030F021F41E
:102CD0005F3F19F0CCC0511115C1CFC0F0D098F3AF
:102CE0009923C9F35523B1F3951B550BBB27AA278D
:102CF00062177307840738F09F5F5F4F220F331FFF
:102D0000441FAA1FA9F333D00E2E3AF0E0E830D0CA
:102D100091505040E695001CCAF729D0FE2F27D0CD
:102D2000660F771F881FBB1F261737074807AB079B
:102D3000B0E809F0BB0B802DBF01FF2793585F4F10
:102D40002AF09E3F510568F092C0DCC05F3FECF373
:102D5000983EDCF3869577956795B795F7959F5FD5
:102D6000C9F7880F911D9695879597F90895E1E029
:102D7000660F771F881FBB1F621773078407BA0788
:102D800020F0621B730B840BBA0BEE1F88F7E095E3
:102D9000089504D06894B111B5C0089598D088F012
:102DA0009F5790F0B92F9927B751A0F0D1F0660F37
:102DB000771F881F991F1AF0BA95C9F712C0B13052
:102DC00081F09FD0B1E008959CC0672F782F8827AD
:102DD000B85F39F0B93FCCF3869577956795B39591
:102DE000D9F73EF490958095709561957F4F8F4F00
:102DF0009F4F0895E89409C097FB3EF49095809505
:102E0000709561957F4F8F4F9F4F9923A9F0F92FB0
:102E100096E9BB279395F695879577956795B7952E
:102E2000F111F8CFFAF4BB0F11F460FF1BC06F5F14
:102E30007F4F8F4F9F4F16C0882311F096E911C026
:102E4000772321F09EE8872F762F05C0662371F047
:102E500096E8862F70E060E02AF09A95660F771F5B
:102E6000881FDAF7880F9695879597F9089597F94F
:102E70009F6780E870E060E008959FEF80EC089520
:102E800000240A9416161706180609060895002449
:102E90000A9412161306140605060895092E0394C3
:102EA000000C11F4882352F0BB0F40F4BF2B11F437
:102EB00060FF04C06F5F7F4F8F4F9F4F089557FD96
:102EC0009058440F551F59F05F3F71F04795880F98
:102ED00097FB991F61F09F3F79F08795089512162F
:102EE00013061406551FF2CF4695F1DF08C01616DB
:102EF00017061806991FF1CF86957105610508948C
:102F00000895E894BB2766277727CB0197F90895A2
:102F10000BD0C4CFB5DF28F0BADF18F0952309F045
:102F2000A6CFABCF1124EECFCADFA0F3959FD1F38C
:102F3000950F50E0551F629FF001729FBB27F00D67
:102F4000B11D639FAA27F00DB11DAA1F649F6627BC
:102F5000B00DA11D661F829F2227B00DA11D621F0B
:102F6000739FB00DA11D621F839FA00D611D221FC5
:102F7000749F3327A00D611D231F849F600D211DA9
:102F8000822F762F6A2F11249F5750408AF0E1F04C
:102F900088234AF0EE0FFF1FBB1F661F771F881F95
:102FA00091505040A9F79E3F510570F060CFAACFD5
:102FB0005F3FECF3983EDCF3869577956795B79580
:102FC000F795E7959F5FC1F7FE2B880F911D9695AA
:102FD000879597F90895EF920F931F93CF93DF93FF
:102FE000E80147FF02C034E101C034E0E42FFF27CD
:102FF000E7FDF095F7FF03C0F195E195F109E32EA8
:10300000022F2E2FAE010E942F18CE01DF91CF91FB
:103010001F910F91EF900895FC0105900020E9F7B2
:10302000809590958E0F9F1F0895F999FECF92BDC0
:1030300081BDF89A992780B50895262FF999FECF7A
:1030400092BD81BDF89A019700B4021639F01FBAFB
:1030500020BD0FB6F894FA9AF99A0FBE08956F92B0
:103060007F929F92AF92BF92CF92DF92EF92FF92A8
:103070000F931F93CF93DF93CDB7DEB729970FB68A
:10308000F894DEBF0FBECDBF6A01B22E102F0C33F5
:1030900020F4FF24F394F00E02C04CE3F42E0F2D25
:1030A00027E0AE014F5F5F4F0E94AD197981272F56
:1030B0002970213031F0E1FC06C0E0FC06C060E080
:1030C00005C06DE203C06BE201C060E2AE2DA071ED
:1030D00073FF36C0662311F084E001C083E08B15D6
:1030E00010F4B81A01C0B12CA1110BC0F6018B2D40
:1030F00090E2882319F091938150FBCFCB0CD11C27
:10310000B12C662331F0F601608396012F5F3F4FAB
:103110006901C6010396E2FE05C02EE4F601208394
:1031200031E404C02EE6F601208331E631832283A8
:10313000FC012B2D30E22223F1F131932150FBCF02
:1031400072FF40C0662311F084E001C083E08B155C
:1031500010F4B81A01C0B12CA1110BC0F6018B2DCF
:1031600090E2882319F091938150FBCFCB0CD11CB6
:10317000B12C662331F0F601608396012F5F3F4F3B
:103180006901C6010396E2FE07C029E4F601208327
:103190002EE4218326E406C029E6F60120832EE6EC
:1031A000218326E62283FC012B2D30E2222319F015
:1031B00031932150FBCFFC01EB0DF11D10828EEFFE
:1031C0009FEFB7C0B1E0611101C0B0E04B2F50E0FC
:1031D0001816190624F49C012F5F3F4F02C021E00E
:1031E00030E0240F351F112329F0412F50E04F5FAD
:1031F0005F4F02C040E050E0420F531F2B2D30E0E4
:103200004217530714F4B41A01C0B12C2E2D2871A3
:1032100059F4F6012B2D30E2222319F0319321507D
:10322000FBCFCB0CD11CB12CBB2331F0F60160835A
:1032300096012F5F3F4F6901A1110BC0F6012B2DA5
:1032400030E3222319F031932150FBCFCB0CD11C5A
:10325000B12CF80E0A81372F3071A32E74FF03C0F2
:10326000013309F4FA941F142CF42F2D293018F08F
:1032700028E001C021E0682F392F97FF02C060E0ED
:1032800030E0462F532F612C712C3EE2932EBC016F
:10329000621B71099B01DC01A41BB50BE1E0F0E0AE
:1032A000EC0FFD1FAE0FBF1FE12EF12CF194E19446
:1032B000F1084F3FFFEF5F0731F4F6019082B6014E
:1032C0006F5F7F4F6B01841795074CF0241735070C
:1032D00034F4BD01660D771DFB01118101C010E3BF
:1032E00041505109FFEF6F1A7F0AB6016F5F7F4FA0
:1032F0004E155F0524F0F60110836B01DACF4817F5
:10330000590739F4063320F4053319F4A11001C02C
:1033100011E3F6011083FB018B2D90E2882319F055
:1033200091938150FBCFFB01EB0DF11D108280E0EA
:1033300090E029960FB6F894DEBF0FBECDBFDF91A7
:10334000CF911F910F91FF90EF90DF90CF90BF90A2
:10335000AF909F907F906F900895283008F027E0FD
:103360003327DA01990F311D87FD916000966105C1
:10337000710539F432602E5F3D9330E32A95E1F711
:1033800008959F3F30F080387105610509F03C5F7A
:103390003C5F3D93913008F08068911DDF93CF939F
:1033A0001F930F93FF92EF92192F987F9695E92F15
:1033B00096959695E90FFF27E851FE4F99273327F9
:1033C000EE24FF24A701E70105900894079428F450
:1033D000360FE71EF81E491F511D660F771F881F05
:1033E000991F0694A1F70590079428F4E70EF81E9C
:1033F000491F561FC11D770F881F991F661F06940E
:10340000A1F70590079428F4F80E491F561FC71F0F
:10341000D11D880F991F661F771F0694A1F705908D
:10342000079420F4490F561FC71FD81F990F661F16
:10343000771F881F0694A9F784911095177041F0A3
:10344000D695C79557954795F794E7941A95C1F780
:10345000EEE8F1E06894159015913591659195919C
:1034600005907FE27395E118F10A430B560BC90BE7
:10347000D009C0F7E10CF11E431F561FC91FD01D14
:103480007EF4703311F48A95E6CFE894015030F061
:10349000080F0AF40027021708F4202F2395022FA3
:1034A0007A3328F079E37D932A95E9F710C07D936C
:1034B0002A9589F6069497956795379517951794E9
:1034C000E118F10A430B560BC90BD00998F023956C
:1034D0007E9173957A3308F070E37C932013B8F7EC
:1034E0007E9170617D9330F0839571E37D9370E3FD
:1034F0002A95E1F71124EF90FF900F911F91CF9142
:0E350000DF91992787FD90950895F894FFCFED
:10350E000800831000000104100000018208000072
:10351E00010000000000000000000000A1200000DB
:08352E0000000200CDCCCC3DF1
:00000001FF
